:020000040800F2
:10000000680A0020FD0100088133000879330008E8
:100010007D330008290F0008713800080000000037
:10002000000000000000000000000000893300080C
:10003000510F000800000000853300088D330008D0
:10004000170200081702000817020008170200082C
:100050001702000817020008550F0008910F00084A
:100060001702000817020008CD0F00082D0F000826
:1000700017020008170200081702000817020008FC
:10008000390F0008450F0008170200081702000882
:1000900017020008170200081702000817020008DC
:1000A00017020008170200081702000817020008CC
:1000B00095330008A1330008170200081702000852
:1000C00017020008170200081702000817020008AC
:1000D0001702000817020008653800081702000818
:1000E00017020008170200081702000800F002F8C3
:1000F00000F075F814A696E8000CB244B344DA4553
:1001000001D100F06CF8BAE80F000FA696E83000B5
:10011000A5EB040504EB0607AAEB0704A7F101070A
:100120004FEA15154FEA3414A4F10104AC4201D38F
:1001300000F055F813F0010F18BFFB1A43F001034C
:1001400000F001F8DBE71847243E0000443E0000C1
:10015000103A24BF78C878C1FAD8520724BF30C8F3
:1001600030C144BF04680C60704700007047000055
:100170000023002400250026103A28BF78C1FBD8B0
:10018000520728BF30C148BF0B607047692900F093
:10019000D780642900F0D480752900F0D1806F29C0
:1001A00000F06881782900F08F810368DB0928BF9F
:1001B00041F08001632900F0E183E32900F0F4833A
:1001C000002070471FB500F055FE040000200021FC
:1001D00003F07AFE401C60601FBD10B510BD00F03A
:1001E00023FE1146FFF7EEFF03F0C4FB00F046FECE
:1001F00003B4FFF7F2FF03BC00F08EFE094880470E
:1002000009480047FEE7FEE7FEE7FEE7FEE7FEE7F8
:10021000FEE7FEE7FEE7FEE704480549054A064B10
:100220007047000091330008ED00000868040020CA
:10023000680A002068060020680600200FB41CB57C
:100240000C0007AA009007D04142A14202D32044EB
:10025000401E01E04FF0FF30074B7B4469460190A0
:10026000069800F066FB0021002C01D0009A117066
:100270001CBC5DF814FB0000FB06000070B50446D2
:1002800085690068C10601D5302600E02026C00738
:1002900007D070BDD4E9012130469047206A401C48
:1002A00020626D1EF6D570BD70B504468569007874
:1002B000C00707D170BDD4E9012120209047206AF2
:1002C000401C20626D1EF6D570BD09684A0501D537
:1002D00040B27047C905FCD500B2704709684A05AD
:1002E00001D5C0B27047C905FCD580B2704770B562
:1002F0000C460546012A05D02878800600D5EA6913
:10030000002302E0012305E05B1C934202D2E05C83
:100310000028F9D1A869E618C01AA861286A18440B
:1003200028622846FFF7AAFF04E0D5E9012114F866
:10033000010B9047B442F8D32846FFF7B5FF70BDD4
:100340002DE9F0410646002410687529314616A5AE
:1003500010D0FFF7BAFF002802DA404213A507E0E9
:1003600031688A0701D512A502E0490704D511A515
:10037000012401E0FFF7B2FF00210A2206F1240761
:1003800009E0B0FBF2FCB0FBF2F302FB1C003030E2
:1003900078541846491C0028F3D123462A46304693
:1003A000BDE8F04100F066BA000000002D0000003A
:1003B0002B000000200000002DE9FF5F15468A4653
:1003C0000446DFF8AC80F8440027D8E900103E4628
:1003D000CDE9001010E03AF816106A4602A800F0C5
:1003E00033FB411C07D02178890603D5E26939180F
:1003F00091420DD80744761C2078800602D5E0692A
:10040000B84205DDAE42E6DB3AF816000028E2D13C
:10041000A069C01BA0612046FFF730FFD8E900109B
:10042000CDE90010002017E03AF818106A4602A83B
:1004300000F00AFBB0F1FF3F81460BD000250DF123
:10044000080B05E0D4E901211BF8050090476D1C5D
:100450004D45F7D308F10100B0428046E4DB206A45
:10046000384420622046FFF71FFFBDE8FF9F0000D1
:100470002A3B000070B5044621461068FFF72EFFA6
:10048000002104F1240505E000F007023032C00825
:100490006A54491C0028F7D12068002308A20507E8
:1004A00008D500F02000084304D0E069012305A22C
:1004B000401EE0612046BDE8704000F0DBB900005E
:1004C000000000003000000070B504460D462146D3
:1004D0001068FFF703FF2188090502D50F4A7A4407
:1004E00002E00E4A7A440E32002104F1240305E0B2
:1004F00000F00F060009965D5E54491C0028F7D1F4
:1005000020780023000704D5702D02D009B1022302
:1005100011322046BDE8704000F0ACB91A3A000034
:100520002DE9F05F894604464FF0000ADFF874B108
:10053000FB44C0F820A02046E1688847002874D01A
:10054000252806D0D4E901219047206A401C20626A
:10055000F1E700265F462046E168884720280546E7
:1005600007DB312D05D2781910F8200C08B10643AD
:10057000F1E7B00701D526F00406C4F81CA0002757
:10058000C4F818A02A2D09D0284603F096FC38B3E9
:1005900004EB8708303DC8F8185019E059F8041BDF
:1005A000204604EB87029161E1688847012F0546E8
:1005B00018D1E069002820DA26F020061DE0D8F8DE
:1005C000180000EB800005EB40003038C8F8180038
:1005D0002046E1688847054603F06FFC0028EED10D
:1005E000012F0AD02E2D08D12046E16888477F1CB4
:1005F0000546022F46F02006C4DBA069002803DA76
:10060000404246F00106A061F00701D026F0100636
:100610006C2D0BD0682D09D04C2D39D06A2D35D0DA
:10062000742D35D07A2D33D016E038E0E1682F46AE
:1006300020468847B842054609D16C2F26D04FF492
:100640008060E168064320468847054604E06C2F39
:100650001AD04FF4807006430DB3A5F1410019285C
:1006600002D8203546F400664A46294620462660D0
:100670004E46FFF78BFD80B101280BD0F61D26F00A
:10068000070000F1080956E74020E4E78020D8E79A
:100690000020D6E706F104094DE7284652E7206A14
:1006A000BDE8F09FF03900000FB400B58DB010A97F
:1006B000099000910B904FF0FF300A9000200C90B1
:1006C000064878440690064878446A4607900F9991
:1006D00009A800F089F90DB05DF814FB4303000090
:1006E0005B0300002DE9FF5F1D464FF0FF3B914685
:1006F0004FF000085F46D5E90146A96901987F1CC3
:100700008847296A824688470028F6D1BAF1FF3F18
:100710000CD0002E24F4C06419DD600614D5BAF1A3
:100720002B0F09D0BAF12D0F0ED103E0584604B0BB
:10073000BDE8F09F44F48064A96901987F1C884754
:10074000761E8246002E02DDBAF1300F03D0B9F1D9
:10075000000F26D032E0A969761E01987F1C44F470
:1007600000748847002E824605DDBAF1780F06D066
:10077000BAF1580F03D0B9F1000F10D01EE0B9F153
:10078000000F02D0B9F1100F18D1A969761E019897
:100790007F1C24F4007488478246102002E0082061
:1007A00000E00A20814609E0A96908FB0908761ED5
:1007B00001987F1C44F4007488478246002E05DDB2
:1007C0004946504600F0FCF80028EDDAE969019846
:1007D0008847A00502D46FF00100A8E7E00725D103
:1007E000600613D5600502D5C8F1000000E0404660
:1007F00029680A1D2A600968220501D5087015E0DC
:10080000220701D5088011E008600FE02868011D6B
:1008100029600068210502D580F8008006E02107E4
:1008200002D5A0F8008001E0C0F8008038467EE7DD
:1008300010B5431C02E010F8011B71B18107FAD119
:100840004FF0013202C88C1A8C4314EAC211F9D05D
:10085000C01A0A0603D0C01E10BDC01A10BD0A047B
:1008600001D0801E10BD0902FCD0401E10BD704793
:10087000704770472DE9F0470D4699469246044669
:1008800000F124080168880604D5E06921F0100110
:10089000216000E00120A84201DD471B00E00027A5
:1008A000A1697A1902EB0900081AA0612078C00634
:1008B00002D42046FFF7E2FC002608E0D4E901213B
:1008C0001AF806009047206A401C761C20624E45AC
:1008D000F4DB2078C0060AD52046FFF7CFFC06E0FF
:1008E000D4E9012130209047206A401C2062381E44
:1008F000A7F10107F4DC07E0D4E9012118F80500AD
:100900009047206A401C2062281EA5F10105F3DCF7
:100910002046FFF7C9FC2078000602D50220BDE87A
:10092000F0870120FBE7000001694A1C026108789A
:10093000704700B58FB0CDE901310021059105491F
:100940007944CDE9031011466846FFF7E9FD0FB081
:1009500000BD0000E5FFFFFFD1E900239A4202D26B
:10096000531C0B601070704710B5436913B1AFF39F
:10097000008001E0FFF7BBFC012010BD127800F100
:1009800024010A7000224A700122EDE711684FF03D
:10099000FF32E9E710B5436913B1AFF3008001E01E
:1009A000FFF70AFD012010BD128800F124018284A6
:1009B0000022C2840122EDE711684FF0FF32E9E71F
:1009C0003A2800D2303820F02002412A01D3A2F187
:1009D0003700884201D34FF0FF307047026811445E
:1009E0001378016018467047D16005497944516118
:1009F00004497944116200211161114600F05AB88E
:100A0000EDFFFFFFAB000000426842B1016811F842
:100A1000013B23B1521EC0E9001218467047012164
:100A2000C160881E704742685AB1C368016843B903
:100A300083688B4205D0491E521CC0E90012002079
:100A400070474FF0FF3070472DE9F04116460C46D5
:100A5000054600F01DF8036893F80101012807D04E
:100A6000FF2C12D8185D80B101202C70BDE8F081F8
:100A7000D3F807013246214603F20713C718284668
:100A8000BC46BDE8F041002360474FF0FF30EDE782
:100A900010B500F0EFF9001D10BD00BF2D340000AF
:100AA00010B50446FFF7F4FF0068005D00F0010098
:100AB00010BD00002DE9F34F4FF0000A0C465646DA
:100AC0008DB001200C9001F10C000B9062690B9825
:100AD00001219047051E2DD0252D2CD0216A884755
:100AE000C0B162690B9801219047216A88470028AC
:100AF000F7D16269411E0B98904700E0761CA1690E
:100B00000D988847216A88470028F7D1E1690D9838
:100B10008847DBE7A1690D988847A842074601D1BD
:100B2000761CD3E7E1690D9888477F1C02D1BAF1A2
:100B3000000F6FD06BE162690B9800273D46394684
:100B400090472A2804D162690B980121904701251A
:100B5000DFF8D08262690B9801219047A0F1300143
:100B60000A290AD24745E5DC07EB870100EB41077C
:100B7000303FDFD445F01005ECE7E90601D46FF013
:100B800000476C280AD04C2814D0682815D06A2851
:100B90000DD074281CD07A281AD01DE062690B98F9
:100BA000012190476C2802D045F0040514E045F07F
:100BB00002050DE045F020050AE062690B9801216D
:100BC0009047682802D045F0080505E045F4006527
:100BD00062690B9801219047C4E9015765283DD00F
:100BE00019DC58287AD00CDC452837D004DC2528BD
:100BF00026D041289ED131E046282FD0472899D1D0
:100C00002CE05B2877D0612828D063287CD064282A
:100C100023D15AE0F6E06F2848D008DC66281DD0C2
:100C200067281BD0692821D06E2816D127E07028AC
:100C300045D0732868D0752847D078280DD14DE06D
:100C4000A1690D988847252805463FF469AFE169F9
:100C50000D9888476D1C3FF46AAFD8E00D99234684
:100C60006A466FF00100AFF30080C5E045F0400038
:100C700023464FF000026060A80736D43EE0E80744
:100C80007FF447AF2068011D21600068290501D568
:100C900006701BE7290701D5068017E7A90703D5CA
:100CA000F117C0E9006111E706600FE745F0400069
:100CB00023464FF008026060A80716D41EE040F6F5
:100CC0000E0125EA0100606016E045F04000234671
:100CD0004FF00A026060A80707D40FE045F040001B
:100CE0006060A80708D5234610220D996FF0010017
:100CF000AFF3008080E007E0102223460D996FF0EB
:100D00000100FFF7EFFC77E04FF0000963284F4642
:100D1000C8464B46CB4602D05B2806D038E0E806F2
:100D200001D40120A060012732E06269D4F80CB040
:100D30000B98012190475E2807D14FF001094946E1
:100D40006269D4F80CB00B989047216939B9002139
:100D50000A4603AB43F82120491C0829FADBD8B323
:100D6000216949B308F1010862690B980121904794
:100D70005D28F4D1B9F1000F09D0002003A951F882
:100D80002020D24341F82020401C0828F7DB03AB89
:100D90002069002820794FEA40701ED05B46224629
:100DA000CDF80080CDE901970D9900286FF0010082
:100DB00020DAAFF300801FE0C11703AA00EBD16176
:100DC0004B1121F01F0102EB8302411A136801202D
:100DD000884003431360C7E719E00D9922460028B5
:100DE0006FF00100009702DAAFF3008004E0AFF388
:100DF000008001E0AFF3008000280ADA401C06D131
:100E00000C9820B14FF0FF300FB0BDE8F08F504686
:100E1000FAE7E90701D10AF1010A064400200C9023
:100E200054E60000CCCCCC0C754600F031F8AE4650
:100E300005006946534620F00700854618B020B5E6
:100E4000FFF7EAF9BDE820404FF000064FF0000739
:100E50004FF000084FF0000BAC46ACE8C009ACE81E
:100E6000C009ACE8C009ACE8C00921F007018D4613
:100E700070470000004870474000002010B504464D
:100E8000AFF300802046BDE81040FFF7B1B9000085
:100E900000487047200000204FF0013C50F8042B20
:100EA00051F8043B9A4221D1A2EB0C03934313EA7D
:100EB000CC1317D150F8042B51F8043B9A4215D1AA
:100EC000A2EB0C03934313EACC130BD150F8042B81
:100ED00051F8043B9A4209D1A2EB0C03934313EA65
:100EE000CC13DBD04FF00000704700BFD01A01BA1E
:100EF000B1FA81F101F0180122FA01F0CB40DBB226
:100F0000C0B2C01AC1F120012CFA01F3D11A9143E9
:100F100011EAC311E6D1704701491820ABBEFEE7C4
:100F20002600020070470000FEE7000040F20420A7
:100F3000C2F2000000F0AABA40F24820C2F200005B
:100F400000F0A4BA40F28C20C2F2000000F09EBA79
:100F500070470000B0B500F017FD40F26035C2F2F6
:100F6000000529680446401A65280BD340F2B400F6
:100F700043F65F71C2F20000C0F60001022202F0E7
:100F800085FF2C600120BDE8B04000F0E3BB00000D
:100F9000B0B500F0F9FC40F26035C2F200052968F6
:100FA0000446401A65280BD340F2B40043F65F7143
:100FB000C2F20000C0F60001002202F067FF2C60C0
:100FC0000220BDE8B04000F0C5BB0000B0B500F0A5
:100FD000DBFC40F26035C2F2000529680446401A85
:100FE00065280BD340F2B40043F65F71C2F20000F3
:100FF000C0F60001012202F049FF2C601020BDE87C
:10100000B04000F0A7BB0000EFF3108072B600BF45
:10101000FEE7000010B581B00022009290F8242075
:10102000012A03D10221084601B010BD4B680122FC
:10103000062B80F8242033D8D0F800C003EB8303BC
:101040005A1F1F23DCF834E003FA02F40B682EEA7F
:10105000040403FA02F22243CCF83420092B03EBF8
:10106000430249D9DCF80CE01E3A07248968944011
:101070002EEA0404914023F001022143102ACCF807
:101080000C1043D142F20841C4F20101A1F108025F
:10109000944543D0816A41F020018162012136E00C
:1010A000D0F800C00C2B03EB830213D8233A1F2384
:1010B000DCF830E003FA02F40B682EEA040403FAC9
:1010C00002F22243CCF83020092B03EB4302C9D8AB
:1010D00012E000BF413A1F23DCF82CE003FA02F4CF
:1010E0000B682EEA040403FA02F22243CCF82C2007
:1010F000092B03EB4302B5D8DCF8103007248968CC
:101100009440A34391401943CCF8101000210022D1
:1011100080F82420084601B010BD00BF0A68120202
:10112000F4D40A68102B42F400020A60EED140F2B7
:101130001801C2F2000109684DF68362C4F21B3245
:10114000A1FB0212910C01EB810149000091009971
:101150000029DBD000990139009100990029D5D0F0
:1011600000990139009100990029CFD000990139E7
:10117000009100990029C9D0009901390091009986
:1011800000294FF00001E5D1C1E70000002804BFAD
:1011900001207047B0B50446806A28B1216888688C
:1011A000C0070CD115E000BF0020E06284F82400E5
:1011B000204600F097F821688868C00709D0886841
:1011C00020F00100886000F0DFFB21688A68D20708
:1011D00026D1A06AC0063AD4A06A41F20212904316
:1011E0000230A062E069D4E9013240EA030C531EE8
:1011F000B3FA83F35D091346B2F5807F18BF2B0263
:10120000207D257B01284CEA45002CD135B3A56A09
:1012100045F02005A562E56A45F00105E56222E09A
:10122000054602E08868C007D3D000F0ADFB401B44
:1012300021680328F6D38868C007F3D0A06A40F07D
:101240001000A062E06A40F00100E062A06AA06ABB
:1012500040F01000A0620120B0BD00BFA56903EB03
:101260004533A3F5C0534D68B2F5807F25F4694539
:1012700043EA05034B608B684FF2FD75CFF6E175CD
:1012800003EA050343EA00038B6001D0012A07D17A
:1012900022690023CFF6F07303EB025201E000BF96
:1012A0000022CB6A23F470031A43CA62896840F6AD
:1012B000FE62CFF61F721140814207D10020E0622A
:1012C000A16A012262F30101A162B0BDA06A40F0EF
:1012D000100020F00200A062E06A40F00100E0622D
:1012E0000120B0BD70B586B0044640F60000C4F2DF
:1012F0000100216800F5E052002691420596CDE9F3
:101300000366029602D006B070BD00BF41F218011C
:10131000C4F202010A6842F400720A600A6802F428
:1013200000720192019A0A6842F004020A60096898
:1013300001F004010191019901210291032103911E
:1013400002A900F013FA40F204250820C2F20005B9
:10135000C4F202004FF48072C5E9000605F11000E6
:1013600080214FF480634FF0200C80E80C10284659
:10137000C5E90261EE6100F059F9002818BFFFF7D6
:1013800043FE25626C6206B070BD0000014690F815
:101390002100022816D10868D1E90FC3026822F0A3
:1013A0000E020260026822F001020260012000FACF
:1013B00003F2CCF8042081F821000020002281F8FB
:1013C00020207047042088630120002281F820201B
:1013D0007047000090F82110022923D1026840F2E2
:1013E000040C1168C4F2020C21F00E0111601368A4
:1013F0002F21C4F202018A4223F00103136015DD9C
:101400003023C4F202039A421CD04423C4F20203E4
:101410009A421BD05823C4F202039A421CD14FF4C3
:10142000803321E004218163012070470823C4F246
:1014300002039A420ED01C23C4F202039A420BD13B
:10144000102311E04FF480730EE000BF4FF480537F
:101450000AE000BF012307E00CF168014FF0807340
:101460008A4208BF4FF480130121CCF8003080F885
:101470002110416B0022002980F8202004BF0020A9
:10148000704780B58847002080BD000010B5D0E9C6
:101490000FCE0168DCF800300A6823FA0EF35C070F
:1014A0002AD512F0040427D00A68920603D40A68E9
:1014B00022F004020A602F22C4F20202914240F29A
:1014C0000402C4F202025BDD3023C4F2020399423B
:1014D00072D04423C4F20203994273D05823C4F259
:1014E0000203994240F07A804FF480231360C16A6E
:1014F000002940F098806FE09C0727D512F0020485
:1015000024D00A68920606D40A6822F00A020A6009
:10151000012280F821202F22C4F20202914240F2DF
:101520000402C4F202023BDD3023C4F202039942FA
:1015300060D04423C4F2020399425FD05823C4F21E
:101540000203994260D14FF4003365E01B0743D595
:1015500012F0080208BF10BD0A6822F00E020A60ED
:10156000012101FA0EF2CCF80420816380F82110E9
:10157000016B0022002980F8202054D12CE000BF0C
:101580000823C4F20203994222D01C23C4F20203AE
:10159000994223D140231360C16A002943D11BE043
:1015A0000823C4F2020399422CD01C23C4F2020384
:1015B000994229D120232FE04FF480631360C16A40
:1015C00089BB09E04FF480431360C16A59BB03E053
:1015D00004231360C16A31BB10BD00BF02F168046F
:1015E0004FF08063A14208BF4FF480031360C16ACB
:1015F000C9B9F1E74FF400730EE000BF4FF4005398
:101600000AE000BF022307E002F168044FF0007314
:10161000A14208BF4FF400131360816A0022002921
:1016200080F82020D8D0BDE81040084701460028A7
:101630004FF0010008BF70472DE9F043D1F800C01A
:101640004FF6F873CBF6FD734CF6CD426344CCF6FF
:10165000CC42A3FB02236FF0030202EA93020023B1
:10166000C4F2020301F10C08C1E90F320222D1E9F0
:10167000019E98E8F00181F82120DCF8002043F673
:10168000F0739A4342EA090242EA0E0222432A43D5
:1016900032433A4342EA0802CCF8002000228A632F
:1016A00081F8210081F820200020BDE8F043704738
:1016B00090F820C0BCF1010F04BF02207047F0B5C4
:1016C0004FF0010E80F820E090F821C0BCF1010F2E
:1016D00026D14FF0020C80F821C04FF0000CC0F86A
:1016E00038C0D0E900C4C56AC66BDCF80070102CA5
:1016F00027F00107CCF80070006C0EFA00F0706063
:101700000846CCF8043004BF10460A46CCF808005E
:10171000CCF80C20DCF8000045B140F00E000DE0E4
:10172000002180F820100220F0BD00BF20F004004E
:10173000CCF80000DCF8000040F00A00CCF8000013
:10174000DCF8000040F00100CCF800000020F0BD03
:101750007047000040F21441C4F201010A680242DD
:1017600014BF08607047FFF7F3BF00002DE9F04F8A
:1017700082B00E68002E00F0FD8041F20042C4F2FB
:101780000102042340F2004E904208BF03234FF6AB
:10179000FF7CC4F2010E009300240123C1F2100C5F
:1017A0004FF0000A4FF000094BE000BF41F2000289
:1017B000C4F20102009F904208BF022704F00C030C
:1017C0000F229A402BEA020207FA03F34FEA9A0526
:1017D0001A4346F825204E6840F20C45F202DEF826
:1017E000082054BF22EA080242EA0802C4F20105B6
:1017F000CEF808202A68B30254BF22EA080242EA5F
:1018000008022A60B303DEF8042054BF22EA08026B
:1018100042EA0802F303CEF80420DEF800204FF07D
:10182000010354BF22EA080242EA0802CEF800206F
:101830000E680AF1010A36FA0AF204F1040400F013
:10184000998003FA0AFB16EA0B08F1D04E68664548
:1018500012DC122E56D8DFE806F0350B4D495555EF
:10186000555555555555555555555545510000BF7C
:10187000D1F80C9046E000BF4FF6FF72C1F2210292
:1018800096420FDC0022C1F2110296421AD00022C9
:10189000C1F21202964215D00022C1F221029642F4
:1018A00010D02FE00022C1F2220296420AD000227C
:1018B000C1F23102964205D00022C1F232029642B4
:1018C00020D100BF8A684AB1012A14BFC0F814B001
:1018D000C0F810B04FF0080914E000BF4FF0040941
:1018E00010E000BFCA6802F104090BE04FF00009E4
:1018F00008E000BFCA6802F1080903E0CA6802F103
:101900000C0900BF02462646B8F5807F24BF04328A
:10191000203E17680F25B54027EA050509FA06F6A7
:1019200035431560CA79D2067FF582AF41F21803BC
:10193000C4F202031A68AEF57E7642F001021A6024
:101940001A6802F001020192019A2AF0030256F885
:1019500002B040F60002C4F20102904208D040F604
:101960000042C4F2010290427FF420AF012725E734
:10197000002723E702B0BDE8F08F0000002A08BF6F
:10198000090401617047000040F26440C2F20000A7
:101990000068704740F2100040F26441C2F200005B
:1019A000C2F2000100780A68104408607047000025
:1019B00080B542F20000C4F20200016841F010015B
:1019C0000160032000F08CF8002000F005F800F022
:1019D00027F8002080BD000070B540F21006C2F26A
:1019E000000640F218013278C2F200014FF47A7317
:1019F0000968B3FBF2F20446B1FBF2F1084600F0CD
:101A000007FC0F2C4FF0010508D838B94FF0FF3014
:101A100021460022002500F037F87460284670BD8A
:101A200082B041F21800C4F202000168022241F0C3
:101A300001010160016801F0010101910199416812
:101A400041F080514160406800F080500090009863
:101A50000420C4F20100016862F31A61016002B05F
:101A600070470000002848BF704700F01F010122A6
:101A700002FA01F11C2202EAD0004EF20012CEF26C
:101A8000000281507047000010B54EF60C5CCEF29B
:101A9000000CDCF80030C3F3022E8EF00704042C97
:101AA00028BF0424BEF103034FF0FF3E0EFA04F4F6
:101AB00038BF0023A14399400EFA03F39A43114320
:101AC00000F00F0200F160430901043A03F564439A
:101AD0006244002848BF02F10C03197010BD0000D9
:101AE0004EF60C51CEF200010A684FF6FF031A4081
:101AF00060F30A2242F0806040F0FD700860704799
:101B00002DE9F04182B00446007841F21C06C0077E
:101B1000C4F202064AD030685FEAC00808D43068D0
:101B200040F080503060306800F0805001900198A3
:101B300047F20007C4F200073868C00512D43868BD
:101B400040F480703860FFF71FFF05463868C00515
:101B500008D4FFF719FF401B6428F7D9032002B00F
:101B6000BDE8F081706810F4407012D0616801F433
:101B7000407188420DD0706840F24042C4F2422267
:101B8000012320F4407113600023C00713607160CB
:101B900026D17068616820F440700843B8F1000FE6
:101BA000706003D4306820F0805030602068810776
:101BB00007D556F8181CA26821F44041114346F895
:101BC000181CC00607D556F8180CE16820F48000F0
:101BD000084346F8180C002002B0BDE8F08100BFB1
:101BE000FFF7D2FE054641F2883700BF70688007D4
:101BF000CFD4FFF7C9FE401BB8424FF00300F5D920
:101C0000EAE70000002804BF012070472DE9F043F7
:101C100081B042F20008C4F202080446D8F800007D
:101C20000D4600F0070088420CD2D8F8000020F0E2
:101C300007002843C8F80000D8F8000000F00700AB
:101C4000A8426CD1206841F204098107C4F202095C
:101C500017D5410705D5D9F8001041F4E061C9F85E
:101C60000010010705D5D9F8001041F46051C9F8FA
:101C70000010D9F80010A26821F0F0011143C9F852
:101C80000010C00742D1D8F8000000F00700A842B9
:101C90000CD9D8F8000020F007002843C8F800004D
:101CA000D8F8000000F00700A84238D120684107AA
:101CB00007D5D9F80010E26821F4E0611143C9F8B2
:101CC0000010000708D5D9F80000216920F4605001
:101CD00040EAC100C9F80000D9F8002002F00C0069
:101CE000082841F20020C0F27A004DD143F64F732C
:101CF000C2F38341C0F60003595CD20338D440F6E6
:101D00000010C0F23D0048433EE000BF606859F853
:101D1000041C022808D0012826D1890306D40120FA
:101D200001B0BDE8F08300BF8901F8D5D9F80010F3
:101D300021F003010843C9F80000FFF725FE06461D
:101D400041F28837D9F80000616800F00C00B0EB70
:101D5000810F98D0FFF718FE801BB842F2D90320FC
:101D600001B0BDE8F08300BF8907D8D5DEE700BF2A
:101D7000D9F8002043F64D73C2F34042C0F6000389
:101D80009A5C4843B0FBF2F0D9F8001043F6357284
:101D9000C1F30311C0F60002515C40F2180220FAB0
:101DA00001F140F21400C2F200000068C2F2000229
:101DB0001160FFF711FE002001B0BDE8F0830000C4
:101DC00040F2180041F20401C2F20000C4F2020124
:101DD0000068096843F64572C1F30221C0F60002AB
:101DE000515CC8407047000040F2180041F2040105
:101DF000C2F20000C4F202010068096843F64572AD
:101E0000C1F3C221C0F60002515CC8407047000017
:101E1000002804BF012070472DE9F04182B004463C
:101E2000007841F20006C007C4F202060CD07068C8
:101E300000F00C00042840F081803068800303D556
:101E40006068002800F04681207880071BD5706804
:101E500010F00C0F09D0706800F00C00082840F05A
:101E600087807068C00300F183803068800703D5E5
:101E70002069012840F02E813068616920F0F80067
:101E800040EAC10030602078000713D42078400772
:101E90002CD4E569002D00F01881706800F00C006A
:101EA000082840F0A780012D40F00481012002B0F5
:101EB000BDE8F081A069002800F084800020C4F211
:101EC00042200121C0F88014FFF75EFD054600BFE7
:101ED000706A800700F1B280FFF756FD401B0228B0
:101EE000F6D9032002B0BDE8F08100BFF0695FEAD7
:101EF000C00808D4F06940F08050F061F06900F04B
:101F000080500090009847F20007C4F2000738683C
:101F1000C00549D4386840F480703860FFF734FD5C
:101F2000054600BF3868C0053ED4FFF72DFD401BB5
:101F30006428F7D9032002B0BDE8F081706800F092
:101F40000C00082803D17068C0033FF576AF6168C4
:101F50003068002900F00C81B1F5A02F00F000815D
:101F6000B1F5803F40F01A8140F480301CE100BFA1
:101F70002069002840F20000C4F2422000F088806E
:101F800001210160FFF700FD054600BF30688007B2
:101F90003FF572AFFFF7F8FC401B0228F6D903208B
:101FA00002B0BDE8F08100BFE168306A002900F0AE
:101FB0009D80052900F09280012940F0AF8040F01B
:101FC0000100B1E00020C4F242200021C0F88014DA
:101FD000FFF7DAFC054600BF706A80077FF556AF51
:101FE000FFF7D2FC401B0228F6D9032002B0BDE85F
:101FF000F08100BF0027C4F2422700203866FFF7B7
:10200000C3FC022D05460DD13068800140F1DE8011
:10201000FFF7BAFC401B02284FF00300F4D902B0CE
:10202000BDE8F081306880014FD5FFF7ADFC401B63
:1020300002284FF00300F5D9F1E700BF40F2180085
:10204000C2F20000006844F6D351C1F26201A0FB65
:102050000101480A019000BF00BF0198411E0028FD
:1020600001913FF413AF00BF0198411E0028019178
:102070003FF40CAF00BF0198411E002801913FF4CE
:1020800005AF00BF0198411E00280191E4D1FDE693
:1020900000210160FFF778FC054600BF306880072B
:1020A0007FF5F1AEFFF770FC401B02284FF00300F4
:1020B000F4D9B4E77068216A00F480328A4209D109
:1020C000616A00F47010884204D1002002B0BDE8BB
:1020D000F08100BF012002B0BDE8F08140F00400B3
:1020E0003062306A40F001001EE000BF20F00100C5
:1020F0003062306A20F004003062FFF745FC05468C
:1021000041F28837306A800720D5FFF73DFC401B3D
:10211000B8424FF00300F5D981E700BF20F001007D
:102120003062306A20F004003062FFF72DFC054673
:1021300041F28837306A800708D4FFF725FC401B3E
:10214000B842F7D9032002B0BDE8F081B8F1000F22
:102150003FF59FAEF06920F08050F06199E600BF36
:1021600040F480203060306840F480301CE000BFD4
:1021700020F480303060306820F480203060FFF739
:1021800003FC0546306880037FF55EAEFFF7FCFB7D
:10219000401B64284FF00300F4D940E720F480305E
:1021A0003060306820F480203060FFF7EDFB05469A
:1021B000306880033FF548AEFFF7E6FB401B64281C
:1021C000F6D9032002B0BDE8F08100BF206AB0F567
:1021D000803F05D17168A26821F40031114371601C
:1021E0007168626A21F47411114308437060012020
:1021F0003866FFF7C9FB0446306880013FF565AFDC
:10220000FFF7C2FB001B02284FF00300F4D906E7DA
:10221000411E0020B0EB116F1CBF012070474EF231
:102220001002CEF2000251604EF62351CEF20001B0
:10223000F0230B7007219060116070477047000019
:102240007047000090F83C20012A4FF0020236D07F
:1022500010B580F83D200268D2F804E0D2F808C03A
:102260000C682EF07003234340F2FF74C4F20004A4
:10227000A24253600ADCB2F1804F13D040F2004317
:10228000C4F200039A420DD011E000BF42F60043B1
:10229000C4F201039A4205D040F60003C4F20003E1
:1022A0009A4204D149682CF08003194391600121BE
:1022B000002280F83D1080F83C20BDE81040104618
:1022C00070470000002804BF0120704710B590F847
:1022D0003D1031B9002180F83C10044600F068F848
:1022E0002046022180F83D10016840F2FF740B681F
:1022F000C4F2000442F6004CA142C4F2010C15DC09
:10230000B1F1804F1AD040F20042C4F20002914273
:1023100014D0A14218DCB1F1804F1DD040F2004230
:10232000C4F20002914217D01AE000BF614505D007
:1023300040F60002C4F200029142EAD1826823F022
:1023400070031343A142E6DD614505D040F600026B
:10235000C4F20002914203D1026923F44073134393
:10236000846923F08002D0F804E0C3682243614509
:102370000A60CB62C1F828E002D14269CCF8302073
:1023800001224A6180F8462080F83E2080F83F20F4
:1023900080F8402080F8412080F8422080F84320D7
:1023A00080F8442080F8452080F83D20002010BDB2
:1023B000006840F20041C4F20001884218BF704733
:1023C00080B582B041F21C00C4F202000168002214
:1023D00041F0020101600068002100F0020001905C
:1023E00001981D20FFF750FB1D2002B0BDE8804082
:1023F000FFF738BB90F83C20012A4FF002026CD066
:1024000080B580F83D20D0F800C04FF67772DCF838
:10241000083023EA0202CCF808200B684F2B29DC95
:102420001F2B45DD202B46D0302B44D0402B40F0D5
:10243000AF80D1F804E0C968DCF82030DCF8202057
:1024400022F00102CCF82020DCF8182022F0F00263
:1024500042EA011123F00A0242EA0E02CCF81810F7
:10246000CCF82020DCF8081041F0470121F03001C1
:1024700028E000BF6F2B33DDB3F5005F74D0B3F5F8
:10248000805F21D0702B40F08380D1E901E3C968DF
:10249000DCF8082043EA0E0322F47F4243EA0121DC
:1024A0001143CCF80810DCF8081041F0770109E07E
:1024B0000BB1102B6CD1DCF8081021F0700119431E
:1024C00041F00701CCF808100022012180F83D10EE
:1024D000002180F83C10BDE880401046704700BFE6
:1024E000502B21D0602B53D1D1F804E0C968DCF81F
:1024F0002030DCF8202022F01002CCF82020DCF87C
:10250000182022F4704242EA013123F0A00242EA8C
:102510000E12CCF81810CCF82020DCF8081041F08E
:10252000670121F01001CDE7D1F804E0C968DCF8BB
:102530002030DCF8202022F00102CCF82020DCF84A
:10254000182022F0F00242EA011123F00A0242EAC6
:102550000E02CCF81810CCF82020DCF8081041F05E
:10256000570121F02001ADE7D1E901E3C968DCF8AA
:10257000082043EA0E0322F47F4243EA012111437B
:10258000CCF80810DCF8081041F480419AE700BF4D
:1025900001229AE77047000010B5016804460869F7
:1025A000800744BFC8685FEA807039D40869400773
:1025B00044BFC8685FEA40703ED40869000744BF62
:1025C000C8685FEA007045D40869C00644BFC8689F
:1025D0005FEAC0604AD40869C0071CBFC8685FEAE8
:1025E000C07051D10869000644BFC8685FEA006046
:1025F00052D40869400644BFC8685FEA406053D4BB
:102600000869800646BFC8685FEA806010BD6FF049
:10261000200220460A61BDE81040FFF711BE00BF4E
:102620006FF002000861012020778869800743D09D
:102630002046FFF7AFFF45E06FF00400086102207D
:102640002077886910F4407F40D02046FFF7A2FF32
:1026500042E000BF6FF00800086104202077C869DD
:1026600080073DD02046FFF795FF3FE06FF0100058
:10267000086108202077C86910F4407F3AD02046CE
:10268000FFF788FF3CE000BF6FF0010008612046C3
:1026900000F0A6F92168A5E76FF0800008612046E8
:1026A000FFF7CCFD2168A4E76FF0400008612046E9
:1026B00000F098F92168A3E7204600F0F7F82046DB
:1026C00000F08CF92168002020776FE7204600F0A9
:1026D000EDF8204600F082F92168002020776CE7B1
:1026E000204600F0E3F8204600F078F92168002049
:1026F000207769E7204600F0D9F8204600F06EF90F
:1027000021680020207766E790F83C30012B04BF59
:10271000022070474FEAB202032A00F2C1802DE97D
:10272000F041DFE802F003852F5F00BF026842F648
:102730000045146A136AC4F2010523F00103136211
:102740005368D2F818C0AA428D68D1F800E024F08E
:10275000020444EA05040BD1CD68D1E9056723F4EE
:10276000407324F00C0425F0040533432C433B4311
:102770002CF0730747EA0E0753609761496851636D
:1027800084E000BF026842F60045146A136AC4F28E
:10279000010523F4807313625368D2F81CC0AA4267
:1027A0008D68D1F800E024F4007444EA05240FD1C8
:1027B000CD68D1E905872D0240F2FF4624F440643C
:1027C000B5432C4323F4405347EA080543EA051375
:1027D0002CF0730747EA0E075360D7614968D1634D
:1027E00054E000BF026842F60046D2F820C0136AE7
:1027F000C4F2010623F4805313625368D4690D6850
:10280000D1F808E0B24204D14E6923F4804343EA90
:10281000861324F4E64646EA05265360D6612CF476
:102820000057496847EA0E33116413622FE000BF76
:10283000026842F60045146A136AC4F2010523F0E7
:10284000100313625368D2F818C0AA428D68D1F8F9
:1028500000E024F0200444EA05140FD1CD68D1E94A
:1028600005876FF0400624F0C00406EA05152C43E6
:1028700023F4406347EA080543EA85032CF4E6475E
:1028800047EA0E27536097614968916314620021FB
:10289000BDE8F041002280F83C200846704700BFA8
:1028A0000121002280F83C20084670477047000054
:1028B000002804BF0120704710B590F83D1031B9D1
:1028C000002180F83C10044600F068F82046022100
:1028D00080F83D10016840F2FF740B68C4F20004F8
:1028E00042F6004CA142C4F2010C15DCB1F1804F5C
:1028F0001AD040F20042C4F20002914214D0A14228
:1029000018DCB1F1804F1DD040F20042C4F2000249
:10291000914217D01AE000BF614505D040F6000291
:10292000C4F200029142EAD1826823F0700313439B
:10293000A142E6DD614505D040F60002C4F2000286
:10294000914203D1026923F440731343846923F055
:102950008002D0F804E0C368224361450A60CB627C
:10296000C1F828E002D14269CCF8302001224A6146
:1029700080F8462080F83E2080F83F2080F84020F4
:1029800080F8412080F8422080F8432080F84420DD
:1029900080F8452080F83D20002010BD0068B0F18F
:1029A000804F18BF704780B582B041F21C00C4F25E
:1029B00002000168002241F001010160006800216D
:1029C00000F00100019001981C20FFF75DF81C2029
:1029D00002B0BDE88040FFF745B800007047000036
:1029E000704700007047000070470000704700000B
:1029F000B0B582B001680A68CC684B6902F02F0557
:102A0000202D04F0200505D125B102B0BDE8B0406D
:102A100000F0A8BE5FEA027C1EBF03F0010E04F4C2
:102A2000907313EB0E0341D1036BD50618D5012B20
:102A300016D114F0100313D0002201920A680192FB
:102A40004A680192019A496949064BD4818DC28D29
:102A5000C38D002B18BF914240F0F48102B0B0BD8D
:102A600013062DD514F080032AD090F84120212A96
:102A7000F4D18268B2F5805F03D10269002A00F0C8
:102A80006782026A531C036212784A60C28C013A60
:102A90001304C284E2D1C86820F08000C860C8680E
:102AA00040F04000C86002B0B0BD00BFD30718BFFF
:102AB00014F4807340F0D080530700F1D380D8E045
:102AC0005206CBD514F04002C8D0CA6822F04002AA
:102AD000CA60202180F8411002B0BDE8B04000F08B
:102AE00047BC00BFC16B0A68526893B2002BB5D0D7
:102AF000858DAB42B2D2C2858969202900F0A180C0
:102B0000016851E8031F026821F4807142E8031351
:102B1000DBB1016851E8031F026821F4807142E8CB
:102B2000031393B1016851E8031F026821F4807117
:102B300042E803134BB1016851E8031F026821F416
:102B4000807142E80313002BDAD1016851E8051FB8
:102B5000026821F0010142E80513C3B3016851E89E
:102B6000051F026821F0010142E805137BB30168EB
:102B700051E8051F026821F0010142E8051333B353
:102B8000016851E8051F026821F0010142E80513C0
:102B9000002BDAD11BE000BF016851E8051F026875
:102BA00021F0400142E80513DBB1016851E8051F3F
:102BB000026821F0400142E8051393B1016851E831
:102BC000051F026821F0400142E805134BB101687E
:102BD00051E8051F026821F0400142E80513002B6F
:102BE000DAD1202180F8421000210163016851E808
:102BF000031F026821F0100142E80313DBB10168F2
:102C000051E8031F026821F0100142E8031393B159
:102C1000016851E8031F026821F0100142E8031324
:102C20004BB1016851E8031F026821F0100142E82E
:102C30000313002BDAD1C16B04460846FEF7A6FB4E
:102C4000204602214163818DC28D891A89B202B06A
:102C5000BDE8B040FFF7C8BE436C43F001034364D6
:102C6000530706D5BEF1000F03D0436C43F00203B7
:102C70004364930706D5BEF1000F03D0436C43F0C5
:102C800004034364BCF1000F06D55EEA050303D0DC
:102C9000436C43F008034364436C002B3FF4DEAE07
:102CA000920605D525B1044600F05CFD216820465A
:102CB0004969426C01F0400102F00802891800F0F5
:102CC000B98000BF016851E8031F026821F49071C8
:102CD00042E80313BBB3016851E8031F026821F403
:102CE000907142E8031373B3016851E8031F02684F
:102CF00021F4907142E803132BB3016851E8031FDC
:102D0000026821F4907142E80313002BDAD11AE033
:102D1000016851E8051F026821F0010142E805132E
:102D2000DBB1016851E8051F026821F0010142E8AA
:102D3000051393B1016851E8051F026821F00101F4
:102D400042E805134BB1016851E8051F026821F004
:102D5000010142E80513002BDAD1016B012924D1CE
:102D6000016851E8031F026821F0100142E80313D3
:102D7000DBB1016851E8031F026821F0100142E84D
:102D8000031393B1016851E8031F026821F0100199
:102D900042E803134BB1016851E8031F026821F0B8
:102DA000100142E80313002BDAD1202180F84210F1
:102DB0000021016301684969490640F1C380016847
:102DC00051E8051F026821F0400142E80513DBB11C
:102DD000016851E8051F026821F0400142E805132F
:102DE00093B1016851E8051F026821F0400142E8F3
:102DF00005134BB1016851E8051F026821F040013D
:102E000042E80513002BDAD1C16B002900F09A804B
:102E100043F2AD32C0F60002044608464A63FEF7AC
:102E2000D9FA00283FF41AAEE06B416B02B0BDE85E
:102E3000B04008470446FFF7D9FD0020606402B0A7
:102E4000B0BD00BF891A00BF026852E8032F0368B3
:102E500022F4907243E80325BDB3026852E8032FC1
:102E6000036822F4907243E8032575B3026852E8C0
:102E7000032F036822F4907243E803252DB3026800
:102E800052E8032F036822F4907243E80325002DD3
:102E9000DAD11AE0026852E8052F036822F0010235
:102EA00043E80525DDB1026852E8052F036822F0EA
:102EB000010243E8052595B1026852E8052F036831
:102EC00022F0010243E805254DB1026852E8052FC2
:102ED000036822F0010243E80525002DDAD1202203
:102EE00080F8422000220263026852E8032F036840
:102EF00022F0100243E80325DDB1026852E8032FF7
:102F0000036822F0100243E8032595B1026852E8F5
:102F1000032F036822F0100243E803254DB1026835
:102F200052E8032F036822F0100243E80325002D26
:102F3000DAD1022289B2426302B0BDE8B040FFF7A5
:102F400053BD00BF02B0BDE8B040FFF74FBD00BFAA
:102F5000026A32F8023B6FF35F234B60026295E531
:102F6000002804BF0120704710B5044690F84100C6
:102F700028B9002084F84000204600F063F824209F
:102F800084F841002068D4E90212C36823F4005396
:102F9000C360036923F440531A430261D4E9042354
:102FA0001143C268194341F20C639A431143C16053
:102FB0004169A26921F44071114343F60002C4F251
:102FC00001029042416103D0FEF7FAFE02E000BF29
:102FD000FEF70AFFD4E90023192148439900B0FB0A
:102FE000F1F048F21F5CC5F2EB1CA0FB0C314FF670
:102FF0009C734909C0F6FF7301FB0300322303EB06
:103000000010A0FB0C03F02000EA531000EB0110AD
:10301000C3F34311084490601069202120F49040CC
:103020001061506920F02A005061D06840F40050CF
:10303000D0600020606484F8411084F8421060631E
:1030400010BD00002DE9F04186B0044644F2004076
:103050002168C4F2000000268142CDE9046603968F
:10306000029603D006B0BDE8F08100BF41F218011E
:10307000C4F202014A6840F26C0842F400324A602D
:103080004A6800F5444002F400320192019A0A684D
:10309000C4F2020842F004020A60096801F0040167
:1030A000019101990C21029102210391059102A93C
:1030B000FEF75CFB40F28C2508F11400C2F200051B
:1030C0001021802785E8C3002846C5E90466C5E9C4
:1030D0000666FEF7ABFA002818BFFDF795FFA5635B
:1030E0006C6240F24825C2F200050020C5E900806C
:1030F000C5E90207C5E90400C5E906002846FEF750
:1031000095FA002818BFFDF77FFF26200021002236
:10311000E5636C62FEF7B8FC2620FEF7A3FC06B060
:10312000BDE8F08190F84230202B0BD194460A463E
:1031300000294FF0010118BFBCF1000F06D108466D
:10314000704700BF02210846704700BF70B582B0CB
:103150000025222105638262A0F82CC0456480F816
:1031600042100168C36B43F2355443F2956E43F24B
:10317000B936C0F60004C0F6000EC0F60006C3E97A
:103180000A4EC3E90C650431044618466346FEF74F
:103190008FFA0195216820460A68019249680191D9
:1031A0000199216931B300BF016851E8031F02682A
:1031B00041F4807142E80313E3B1016851E8031F51
:1031C000026841F4807142E803139BB1016851E841
:1031D000031F026841F4807142E8031353B1016890
:1031E00051E8031F026841F4807142E80313002B89
:1031F000DAD100BF016851E8051F026841F0010102
:1032000042E80513BBB3016851E8051F026841F0AD
:10321000010142E8051373B3016851E8051F026814
:1032200041F0010142E805132BB3016851E8051F85
:10323000026841F0010142E80513002BDAD11AE0DF
:10324000016851E8051F026841F0400142E805139A
:10325000DBB1016851E8051F026841F0400142E816
:10326000051393B1016851E8051F026841F0400160
:1032700042E805134BB1016851E8051F026841F0AF
:10328000400142E80513002BDAD1002002B070BDE6
:10329000014640F28000C2F200003430814218BF83
:1032A000704700F013BD00007047000090F84130F7
:1032B000202B09D1944600294FF0010218BFBCF120
:1032C000000F05D11046704702221046704700BF1C
:1032D00070B5002221230162A0F824C0A0F826C006
:1032E000426480F841300468836B43F2AD6E43F270
:1032F0005D7543F2B936C0F6000EC0F60005C0F6A3
:103300000006C3E90AE5C3E90C62221D044618461B
:103310006346FEF7CDF9216820466FF040020A604F
:10332000016851E8051F026841F0800142E8051379
:10333000DBB1016851E8051F026841F0800142E8F5
:10334000051393B1016851E8051F026841F080013F
:1033500042E805134BB1016851E8051F026841F0CE
:10336000800142E80513002BDAD1002070BD000077
:103370007047000070470000FEE70000FEE7000015
:10338000FEE700007047000070470000FEF702BB38
:103390007047000040F2D020C2F20000FFF7FCB8F6
:1033A00040F21830C2F20000FFF7F6B8406A002180
:1033B000C185C184FFF71ABB406A01684A6990F869
:1033C0004130212B2DD112F080022AD00021C1845E
:1033D000016851E8031F026821F0C00142E80313AD
:1033E000DBB1016851E8031F026821F0C00142E827
:1033F000031393B1016851E8031F026821F0C00173
:1034000042E803134BB1016851E8031F026821F041
:10341000C00142E80313002BDAD1202180F84110CB
:103420000168496990F84220222A40F07D8011F01D
:10343000400179D00021C185016851E8031F02686D
:1034400021F4907142E80313BBB3016851E8031FF4
:10345000026821F4907142E8031373B3016851E8E4
:10346000031F026821F4907142E803132BB3016833
:1034700051E8031F026821F4907142E80313002B06
:10348000DAD11AE0016851E8051F026821F0010154
:1034900042E80513DBB1016851E8051F026821F01D
:1034A000010142E8051393B1016851E8051F026864
:1034B00021F0010142E805134BB1016851E8051FF5
:1034C000026821F0010142E80513002BDAD1016BFB
:1034D000012924D1016851E8031F026821F010017D
:1034E00042E80313DBB1016851E8031F026821F0D1
:1034F000100142E8031393B1016851E8031F026809
:1035000021F0100142E803134BB1016851E8031F99
:10351000026821F0100142E80313002BDAD12021C8
:1035200080F8421000210163416C41F010014164B8
:10353000FFF75CBA0168406A0968890600F19F805C
:103540000021C185016851E8031F026821F48071E0
:1035500042E80313E3B1016851E8031F026821F454
:10356000807142E803139BB1016851E8031F0268B0
:1035700021F4807142E8031353B1016851E8031F3D
:10358000026821F4807142E80313002BDAD100BFF6
:10359000016851E8051F026821F0010142E80513A6
:1035A000BBB3016851E8051F026821F0010142E840
:1035B000051373B3016851E8051F026821F001018A
:1035C00042E805132BB3016851E8051F026821F09A
:1035D000010142E80513002BDAD11AE0016851E835
:1035E000051F026821F0400142E80513DBB10168C4
:1035F00051E8051F026821F0400142E8051393B12C
:10360000016851E8051F026821F0400142E80513F6
:103610004BB1016851E8051F026821F0400142E802
:103620000513002BDAD1202180F84210016B01290B
:1036300025D100BF016851E8031F026821F0100185
:1036400042E80313DBB1016851E8031F026821F06F
:10365000100142E8031393B1016851E8031F0268A7
:1036600021F0100142E803134BB1016851E8031F38
:10367000026821F0100142E80313002BDAD1002187
:103680004163016B012918BFFFF702BE818DFFF76F
:10369000ABB90000406A01214163016B012918BFE9
:1036A000FFF702BE818D4908FFF79EB90168406AA5
:1036B0000968890648BFFFF75BBE0021C18400BFCF
:1036C000016851E8051F026821F0800142E80513F6
:1036D00083B3016851E8051F026821F0800142E8C8
:1036E00005133BB3016851E8051F026821F0800112
:1036F00042E80513F3B1016851E8051F026821F0A3
:10370000800142E80513002BDAD113E0016851E88B
:10371000031F026841F0400142E80313002B08BF79
:103720007047016851E8031F026841F0400142E818
:10373000031393B1016851E8031F026841F040018F
:1037400042E803134BB1016851E8031F026841F0DE
:10375000400142E80313002BD8D17047406AFFF7BD
:1037600009BE000081B090F84210222921D183685F
:103770000246B3F5805F09D152F8281F52F8183C71
:10378000002B63D003685B680AE000BF52F8281F73
:1037900013B90369002BF5D003685B6803F07F035E
:1037A0000B70116801311160C18D01390A04C185A6
:1037B00002D001B0704700BF0168CA6822F0200241
:1037C000CA60CA6822F48072CA604A6922F00102A3
:1037D0004A61202180F8421000214163026B012AD6
:1037E0003CD10163016851E8031F026821F0100118
:1037F00042E80313DBB1016851E8031F026821F0BE
:10380000100142E8031393B1016851E8031F0268F5
:1038100021F0100142E803134BB1016851E8031F86
:10382000026821F0100142E80313002BDAD101688D
:103830000A68D20606D5002200920A6800924968FA
:1038400000910099818D01B0FFF7CEB802685268EF
:103850006FF35F2221F8022B8162A5E701B0FFF729
:1038600017BD000040F2B400C2F20000FFF7C0B87C
:10387000FEE7000042F20F71884288BF70472DE9D1
:10388000F04181B240F20007C90842F2C502C2F21B
:10389000000751434FF6184217F8045B40F6004802
:1038A000090DCFF6FF72C4F2010801FB02047E5C31
:1038B000404620210022FEF761F8304600F046FA2B
:1038C000284600F043FA404620210122FEF756F830
:1038D00020B241F27B414843C11401EBD0706FF03C
:1038E000630100FB014417F8035C3E5C4046202165
:1038F0000022FEF743F8304600F028FA284600F090
:1039000025FA404620210122FEF738F820B246F27F
:1039100067614843811401EBD07000EB800117F818
:10392000025C3E5CA4EB4104404620210022FEF7ED
:1039300025F8304600F00AFA284600F007FA40461B
:1039400020210122FEF71AF817F8015C3E5D40467F
:1039500020210022FEF712F8304600F0F7F9284641
:1039600000F0F4F9404620210122BDE8F041FEF7C5
:1039700005B8000094B0FEF71BF800240120CDE943
:103980000F44CDE90D440E90102002250F900AA897
:10399000CDE90B440394CDE901440A95CDE91154D6
:1039A0001394FEF735FA28B1EFF3108072B600BF1A
:1039B000FEE700BF0F20CDE904054FF48060CDE99C
:1039C000070404A800210694FEF71CF920B1EFF3C8
:1039D000108072B6FEE700BF4FF002094FF0000AF8
:1039E0006846CDF80090CDF808A0FEF789F828B118
:1039F000EFF3108072B600BFFEE700BF41F218047B
:103A0000CDE90CAACDE90AAAC4F20204206840F666
:103A1000000B40F0100020602068C4F2010B00F0A1
:103A200010000490049820684FF4787140F0200052
:103A300020602068002200F0200004900498206894
:103A40004FF4787740F004002060206800F0040014
:103A500004900498206840F008002060206800F07E
:103A60000800049004985846FDF788FF0BF5806520
:103A7000284660210022FDF781FF122040F2000855
:103A80000AAE0A90C1F2110858463146CDE90B8AB8
:103A9000FDF76CFE0A97012758463146CDE90B7AAF
:103AA000CDF83490FDF762FE0AA880E8800528462C
:103AB0003146FDF75BFE60200AA981E881042846B3
:103AC0003146CDF83490FDF751FE0620002100224A
:103AD000FDF7DAFF0620FDF7C5FF072000210022D1
:103AE000FDF7D2FF0720FDF7BDFF0A2000210022CD
:103AF000FDF7CAFF0A20FDF7B5FF54F8040C0021BA
:103B000040F0010044F8040C54F8040C002200F0CA
:103B100001000A900A980B20FDF7B6FF0B20FDF775
:103B2000A1FF102000210022FDF7AEFF1020FDF7BD
:103B300099FF112000210022FDF7A6FF1120FDF7BB
:103B400091FF40F28005C2F20005ABF544412846E2
:103B500040F8341F4FF4E1310C22C0E9011AC0E9EA
:103B600003AAC0E9052AC0F81CA0FFF7F9F928B19B
:103B7000EFF3108072B600BFFEE700BF40F2D02026
:103B80000021C2F200004FF080424F236327CDE9AD
:103B90000411CDE90F11CDE90D11C0E90023C0E9F1
:103BA000021701618161FEF783FE28B1EFF31080F7
:103BB00072B600BFFEE700BF40F2D020C2F20000A4
:103BC00004A9FEF73FFB28B1EFF3108072B600BFE7
:103BD000FEE700BF30200A9040F2D0200024C2F25D
:103BE00000000AA90422CDE90B440E94FEF78CFDD7
:103BF00020B1EFF3108072B6FEE700BF40F218303C
:103C0000ABF58231C2F2000063230D94CDE90B4481
:103C1000CDE90444642280E81600C0E903348461DD
:103C2000FEF750FB20B1EFF3108072B6FEE700BF45
:103C30004FF480500A9040F21830C2F200000AA9F6
:103C4000FEF7D8FB20B1EFF3108072B6FEE700BF9D
:103C500040F21830C2F2000004A9FEF7F3FA28B1CE
:103C6000EFF3108072B600BFFEE700BF0BF5E05126
:103C7000284640F8041F00244FF4C0210126047395
:103C80000475C161C0E901440661FDF77FFA18B10E
:103C9000EFF3108072B6FEE7281D0AA9CDE90A46A7
:103CA0000C94FDF7B7F918B1EFF3108072B6FEE788
:103CB00040F2FC0105F13400C2F200010122FFF7DD
:103CC00031FA2868FFF7D6FDFBE70000B0B582B0F7
:103CD00040F2FC04C2F2000421780A290AD062688A
:103CE000FF2A07D840F20413C2F200039954511C72
:103CF000616015E0054640F20410C2F200000DA11B
:103D000001AAFCF7D1FC012807DB40F28001C2F2D6
:103D1000000101980A68104408600020606028468D
:103D200040F2FC01C2F200010122FFF7FBF902B0F0
:103D3000B0BD00BF44455354524F5945445F5348AA
:103D400049505F53495A453D25640A00B0B540F6D5
:103D50000004C4F201040546C20920464FF4007174
:103D6000FDF70CFE20464FF480710122FDF706FEA0
:103D700020464FF480710022FDF700FEC5F380124B
:103D800020464FF40071FDF7F9FD20464FF4807195
:103D90000122FDF7F3FD20464FF480710022FDF76C
:103DA000EDFDC5F3401220464FF40071FDF7E6FD2E
:103DB00020464FF480710122FDF7E0FD20464FF4CC
:103DC00080710022FDF7DAFDC5F3001220464FF4A2
:103DD0000071FDF7D3FD20464FF480710122FDF7FD
:103DE000CDFD20464FF480710022FDF7C7FDC5F3DD
:103DF000C00220464FF40071FDF7C0FD20464FF48D
:103E000080710122FDF7BAFD20464FF48071002237
:103E1000FDF7B4FDC5F3800220464FF40071FDF7B5
:103E2000ADFD20464FF480710122FDF7A7FD20462D
:103E30004FF480710022FDF7A1FDC5F3400220463A
:103E40004FF40071FDF79AFD20464FF48071012276
:103E5000FDF794FD20464FF480710022FDF78EFDA2
:103E600005F0010220464FF40071FDF787FD204662
:103E70004FF480710122FDF781FD20464FF48071DF
:103E80000022BDE8B040FDF779BD0000B0B540F2BA
:103E90006435C2F2000513460A46044628464FF42C
:103EA0008071FCF7CBF92846FCF7C2FC82B22046B1
:103EB0002946BDE8B040FFF7F9B930380A2801D2E9
:103EC000012070470020704710B500290AD00878FB
:103ED000002807D005487844FCF7DEFF002801D011
:103EE000002010BD0248784410BD0000B60000005C
:103EF000AE0000000000000000000000303132334E
:103F0000343536373839414243444546403058000D
:103F1000303132333435363738396162636465663F
:103F2000403078000400000800000000000000029B
:103F3000000100001000000000000000000102036A
:103F40000406070809000000000102030401020240
:103F5000030405060708090A0B0C0D0E0F1010428A
:103F6000544E5F49443D25640A000000A04000080B
:103F7000000000202000000050010008C0400008A0
:103F800020000020480A0000700100081001000015
:103F900043000000F8FFFFFF004040404040404029
:103FA000404041414141414040404040404040400C
:103FB00040404040404040404005020202020202B0
:103FC00002020202020202020220202020202020FF
:103FD0002020200202020202020290909090909013
:103FE00010101010101010101010101010101010D1
:103FF0001010101002020202020288888888888845
:104000000808080808080808080808080808080830
:104010000808080802020202400000000000000038
:104020000000000000000000000000000000000090
:104030000000000000000000000000000000000080
:104040000000000000000000000000000000000070
:104050000000000000000000000000000000000060
:104060000000000000000000000000000000000050
:104070000000000000000000000000000000000040
:104080000000000000000000000000000000000030
:104090000000000000000000000000000000000020
:1040A000F1F2F4F8C0F9A4B0999282F8809000007F
:1040B00001000000100000000024F40000000000D7
:04000005080000ED02
:00000001FF
