:020000040800F2
:1000000068070020B50100086122000849210008A6
:100010005D22000871020008D925000800000000D8
:100020000000000000000000000000007522000831
:100030008102000800000000652200087922000803
:10004000CF010008CF010008CF010008CF01000850
:10005000CF010008CF0100088502000895020008C2
:10006000CF010008CF0100089D020008CF01000861
:10007000CF010008CF010008CF010008CF01000820
:10008000CF01000875020008CF010008CF01000869
:10009000CF010008CF010008CF010008CF01000800
:1000A000CF010008CF010008CF010008CF010008F0
:1000B00081220008CF010008CF010008CF0100080D
:1000C000CF010008CF010008CF010008CF010008D0
:1000D000CF010008CF010008CD250008CF0100089E
:1000E0008D02000869220008CF01000800F002F824
:1000F00000F050F814A696E8000CB244B344DA4578
:1001000001D100F047F8BAE80F000FA696E83000DA
:10011000A5EB040504EB0607AAEB0704A7F101070A
:100120004FEA15154FEA3414A4F10104AC4201D38F
:1001300000F030F813F0010F18BFFB1A43F0010371
:1001400000F001F8DBE71847C4260000E4260000B1
:10015000103A24BF78C878C1FAD8520724BF30C8F3
:1001600030C144BF04680C60704700007047000055
:100170000023002400250026103A28BF78C1FBD8B0
:10018000520728BF30C148BF0B6070471FB51FBD65
:1001900010B510BD00F031F81146FFF7F7FF02F07F
:1001A0001DFA00F04FF803B4FFF7F2FF03BC00F0B4
:1001B00057F800000948804709480047FEE7FEE776
:1001C000FEE7FEE7FEE7FEE7FEE7FEE7FEE7FEE707
:1001D00004480549054A064B704700007D22000887
:1001E000ED00000868010020680700206803002077
:1001F00068030020704770477047754600F02CF880
:10020000AE4605006946534620F00700854618B003
:1002100020B5FFF7DDFFBDE820404FF000064FF0AE
:1002200000074FF000084FF0000BAC46ACE8C009E7
:10023000ACE8C009ACE8C009ACE8C00921F007018E
:100240008D46704710B50446AFF300802046BDE8E8
:100250001040FFF7A8BF00000048704710000020C2
:1002600001491820ABBEFEE72600020070470000DF
:10027000FEE7000040F2D800C2F2000000F098B89B
:1002800070470000012000F011BA00004FF4005048
:1002900000F00CBA022000F009BA0000102000F0B3
:1002A00005BA0000EFF3108072B600BFFEE7000051
:1002B000014690F82100022816D10868D1E90FC341
:1002C000026822F00E020260026822F0010202605F
:1002D000012000FA03F2CCF8042081F8210000206C
:1002E000002281F82020704704208863012000222A
:1002F00081F820207047000090F82110022923D1B6
:10030000026840F2040C1168C4F2020C21F00E01E4
:10031000116013682F21C4F202018A4223F0010305
:10032000136015DD3023C4F202039A421CD044232B
:10033000C4F202039A421BD05823C4F202039A4229
:100340001CD14FF4803321E00421816301207047E8
:100350000823C4F202039A420ED01C23C4F2020303
:100360009A420BD1102311E04FF480730EE000BFCE
:100370004FF480530AE000BF012307E00CF168014D
:100380004FF080738A4208BF4FF480130121CCF8EC
:10039000003080F82110416B0022002980F82020D5
:1003A00004BF0020704780B58847002080BD000052
:1003B00010B5D0E90FCE0168DCF800300A6823FAE6
:1003C0000EF35C072AD512F0040427D00A689206BF
:1003D00003D40A6822F004020A602F22C4F2020247
:1003E000914240F20402C4F202025BDD3023C4F207
:1003F0000203994272D04423C4F20203994273D09B
:100400005823C4F20203994240F07A804FF48023CB
:100410001360C16A002940F098806FE09C0727D5DF
:1004200012F0020424D00A68920606D40A6822F068
:100430000A020A60012280F821202F22C4F202025F
:10044000914240F20402C4F202023BDD3023C4F2C6
:100450000203994260D04423C4F2020399425FD060
:100460005823C4F20203994260D14FF4003365E08F
:100470001B0743D512F0080208BF10BD0A6822F01E
:100480000E020A60012101FA0EF2CCF80420816309
:1004900080F82110016B0022002980F8202054D11F
:1004A0002CE000BF0823C4F20203994222D01C238F
:1004B000C4F20203994223D140231360C16A002988
:1004C00043D11BE00823C4F2020399422CD01C2321
:1004D000C4F20203994229D120232FE04FF4806314
:1004E0001360C16A89BB09E04FF480431360C16A9D
:1004F00059BB03E004231360C16A31BB10BD00BFC8
:1005000002F168044FF08063A14208BF4FF48003FA
:100510001360C16AC9B9F1E74FF400730EE000BF80
:100520004FF400530AE000BF022307E002F1680421
:100530004FF00073A14208BF4FF400131360816AAB
:100540000022002980F82020D8D0BDE810400847BC
:10055000014600284FF0010008BF70472DE9F04325
:10056000D1F800C04FF6F873CBF6FD734CF6CD42D0
:100570006344CCF6CC42A3FB02236FF0030202EAF1
:1005800093020023C4F2020301F10C08C1E90F3207
:100590000222D1E9019E98E8F00181F82120DCF8DF
:1005A000002043F6F0739A4342EA090242EA0E023F
:1005B00022432A4332433A4342EA0802CCF800205D
:1005C00000228A6381F8210081F820200020BDE804
:1005D000F043704790F820C0BCF1010F04BF022027
:1005E0007047F0B54FF0010E80F820E090F821C080
:1005F000BCF1010F26D14FF0020C80F821C04FF062
:10060000000CC0F838C0D0E900C4C56AC66BDCF87D
:100610000070102C27F00107CCF80070006C0EFA67
:1006200000F070600846CCF8043004BF10460A465B
:10063000CCF80800CCF80C20DCF8000045B140F004
:100640000E000DE0002180F820100220F0BD00BF58
:1006500020F00400CCF80000DCF8000040F00A00B4
:10066000CCF80000DCF8000040F00100CCF80000FD
:100670000020F0BD10B5044600F032F940F27001E0
:10068000C2F200010A68821AC92A38BF10BD012CC3
:1006900006D0022C05D0102C05D1042401E000BFA7
:1006A0000524C1F80640086010BD000040F2144166
:1006B000C4F201010A68024214BF08607047FFF7E4
:1006C000D9BF00002DE9F04F82B00E68002E00F077
:1006D000FD8041F20042C4F20102042340F2004EC8
:1006E000904208BF03234FF6FF7CC4F2010E009333
:1006F00000240123C1F2100C4FF0000A4FF0000952
:100700004BE000BF41F20002C4F20102009F9042A0
:1007100008BF022704F00C030F229A402BEA0202C2
:1007200007FA03F34FEA9A051A4346F825204E6864
:1007300040F20C45F202DEF8082054BF22EA08021B
:1007400042EA0802C4F20105CEF808202A68B30282
:1007500054BF22EA080242EA08022A60B303DEF824
:10076000042054BF22EA080242EA0802F303CEF84A
:100770000420DEF800204FF0010354BF22EA0802F3
:1007800042EA0802CEF800200E680AF1010A36FAA1
:100790000AF204F1040400F0998003FA0AFB16EA55
:1007A0000B08F1D04E68664512DC122E56D8DFE8F1
:1007B00006F0350B4D49555555555555555555551B
:1007C00055555545510000BFD1F80C9046E000BF8B
:1007D0004FF6FF72C1F2210296420FDC0022C1F2F5
:1007E000110296421AD00022C1F21202964215D08E
:1007F0000022C1F22102964210D02FE00022C1F265
:10080000220296420AD00022C1F23102964205D05D
:100810000022C1F23202964220D100BF8A684AB15A
:10082000012A14BFC0F814B0C0F810B04FF0080986
:1008300014E000BF4FF0040910E000BFCA6802F1E5
:1008400004090BE04FF0000908E000BFCA6802F19C
:10085000080903E0CA6802F10C0900BF02462646F7
:10086000B8F5807F24BF0432203E17680F25B540BD
:1008700027EA050509FA06F635431560CA79D20656
:100880007FF582AF41F21803C4F202031A68AEF595
:100890007E7642F001021A601A6802F001020192AB
:1008A000019A2AF0030256F802B040F60002C4F2A0
:1008B0000102904208D040F60042C4F20102904288
:1008C0007FF420AF012725E7002723E702B0BDE82A
:1008D000F08F0000002A08BF090401617047000082
:1008E00040F26410C2F200000068704740F200005D
:1008F00040F26411C2F20000C2F2000100780A68FE
:10090000104408607047000080B542F20000C4F255
:100910000200016841F010010160032000F08CF832
:10092000002000F005F800F027F8002080BD00004E
:1009300070B540F20006C2F2000640F208013278BB
:10094000C2F200014FF47A730968B3FBF2F2044675
:10095000B1FBF2F1084600F04BFD0F2C4FF0010502
:1009600008D838B94FF0FF3021460022002500F0AA
:1009700037F87460284670BD82B041F21800C4F2A6
:1009800002000168022241F001010160016801F0EA
:10099000010101910199416841F080514160406835
:1009A00000F08050009000980420C4F2010001681B
:1009B00062F31A61016002B070470000002848BF6E
:1009C000704700F01F01012202FA01F11C2202EA25
:1009D000D0004EF20012CEF20002815070470000AB
:1009E00010B54EF60C5CCEF2000CDCF80030C3F310
:1009F000022E8EF00704042C28BF0424BEF103034A
:100A00004FF0FF3E0EFA04F438BF0023A143994093
:100A10000EFA03F39A43114300F00F0200F1604312
:100A20000901043A03F564436244002848BF02F117
:100A30000C03197010BD00004EF60C51CEF20001EF
:100A40000A684FF6FF031A4060F30A2242F0806002
:100A500040F0FD70086070472020C4F20E20012194
:100A600001607047012821D002280DD0102808D13C
:100A700041F20401C4F202010A6851F8040CC001F9
:100A800034D40020704700BF80B500F0DBF941F29C
:100A90000401C4F2020109680222C1F3813102EBB0
:100AA0004101B0FBF1F0BDE88040704741F2040025
:100AB000C4F20200C16940F202320A40B2F5817FFD
:100AC00004BF4FF40040704701F44071B1F5407F1E
:100AD00018D0B1F5007F1CBF00207047006A49F6AE
:100AE0004041800701EAE070704700BFC2F38340D5
:100AF00015A3185CD2030DD440F60012C0F23D02DB
:100B0000504313E050F8040C4FF22441800301EAF3
:100B1000E07070470A6810A3C2F340429A5C41F249
:100B20000023C0F27A03B3FBF2F250430968490292
:100B300048BF70474AF6AB214000CAF6AA21A0FB85
:100B400001014808704700BF0203040506070809B1
:100B50000A0B0C0D0E0F1010010200002DE9F041E0
:100B600082B00446007841F21C06C007C4F20206B7
:100B70004AD030685FEAC00808D4306840F080503E
:100B80003060306800F080500190019847F2000713
:100B9000C4F200073868C00512D4386840F4807089
:100BA0003860FFF79DFE05463868C00508D4FFF79A
:100BB00097FE401B6428F7D9032002B0BDE8F081FE
:100BC000706810F4407012D0616801F4407188427E
:100BD0000DD0706840F24042C4F24222012320F45A
:100BE000407113600023C0071360716026D17068E4
:100BF000616820F440700843B8F1000F706003D4BE
:100C0000306820F0805030602068810707D556F8A2
:100C1000181CA26821F44041114346F8181CC00674
:100C200007D556F8180CE16820F48000084346F810
:100C3000180C002002B0BDE8F08100BFFFF750FEA5
:100C4000054641F2883700BF70688007CFD4FFF7B0
:100C500047FE401BB8424FF00300F5D9EAE7000019
:100C6000002804BF012070472DE9F04381B042F213
:100C70000008C4F202080446D8F800000D4600F04F
:100C8000070088420CD2D8F8000020F00700284363
:100C9000C8F80000D8F8000000F00700A8426CD1A6
:100CA000206841F204098107C4F2020917D54107FF
:100CB00005D5D9F8001041F4E061C9F8001001072A
:100CC00005D5D9F8001041F46051C9F80010D9F8E1
:100CD0000010A26821F0F0011143C9F80010C0070C
:100CE00042D1D8F8000000F00700A8420CD9D8F88B
:100CF000000020F007002843C8F80000D8F80000E2
:100D000000F00700A84238D12068410707D5D9F87C
:100D10000010E26821F4E0611143C9F800100007F7
:100D200008D5D9F80000216920F4605040EAC100DC
:100D3000C9F80000D9F8002002F00C00082841F2A0
:100D40000020C0F27A004DD142F2FC73C2F383411D
:100D5000C0F60003595CD20338D440F60010C0F24C
:100D60003D0048433EE000BF606859F8041C02287B
:100D700008D0012826D1890306D4012001B0BDE89E
:100D8000F08300BF8901F8D5D9F8001021F00301E4
:100D90000843C9F80000FFF7A3FD064641F2883773
:100DA000D9F80000616800F00C00B0EB810F98D01A
:100DB000FFF796FD801BB842F2D9032001B0BDE8D1
:100DC000F08300BF8907D8D5DEE700BFD9F800203F
:100DD00042F2FA73C2F34042C0F600039A5C484301
:100DE000B0FBF2F0D9F8001042F2E272C1F3031145
:100DF000C0F60002515C40F2080220FA01F140F214
:100E00000400C2F200000068C2F200021160FFF7A5
:100E10008FFD002001B0BDE8F083000040F2080023
:100E200041F20401C2F20000C4F202010068096844
:100E300042F2F272C1F30221C0F60002515CC840D6
:100E40007047000040F2080041F20401C2F20000C5
:100E5000C4F202010068096842F2F272C1F3C221D1
:100E6000C0F60002515CC84070470000002804BF73
:100E7000012070472DE9F04182B00446007841F22C
:100E80000006C007C4F202060CD0706800F00C0027
:100E9000042840F081803068800303D56068002812
:100EA00000F04681207880071BD5706810F00C0F89
:100EB00009D0706800F00C00082840F08780706846
:100EC000C00300F183803068800703D520690128C2
:100ED00040F02E813068616920F0F80040EAC100DE
:100EE00030602078000713D4207840072CD4E569BF
:100EF000002D00F01881706800F00C00082840F008
:100F0000A780012D40F00481012002B0BDE8F081EE
:100F1000A069002800F084800020C4F24220012152
:100F2000C0F88014FFF7DCFC054600BF706A80073C
:100F300000F1B280FFF7D4FC401B0228F6D9032051
:100F400002B0BDE8F08100BFF0695FEAC00808D4D4
:100F5000F06940F08050F061F06900F0805000903E
:100F6000009847F20007C4F200073868C00549D46A
:100F7000386840F480703860FFF7B2FC054600BF67
:100F80003868C0053ED4FFF7ABFC401B6428F7D996
:100F9000032002B0BDE8F081706800F00C00082862
:100FA00003D17068C0033FF576AF616830680029EF
:100FB00000F00C81B1F5A02F00F00081B1F5803F69
:100FC00040F01A8140F480301CE100BF2069002805
:100FD00040F20000C4F2422000F08880012101604C
:100FE000FFF77EFC054600BF306880073FF572AF13
:100FF000FFF776FC401B0228F6D9032002B0BDE8BB
:10100000F08100BFE168306A002900F09D80052969
:1010100000F09280012940F0AF8040F00100B1E083
:101020000020C4F242200021C0F88014FFF758FCD1
:10103000054600BF706A80077FF556AFFFF750FC8A
:10104000401B0228F6D9032002B0BDE8F08100BFA2
:101050000027C4F2422700203866FFF741FC022D2A
:1010600005460DD13068800140F1DE80FFF738FC85
:10107000401B02284FF00300F4D902B0BDE8F08114
:10108000306880014FD5FFF72BFC401B02284FF042
:101090000300F5D9F1E700BF40F20800C2F20000FA
:1010A000006844F6D351C1F26201A0FB0101480A75
:1010B000019000BF00BF0198411E002801913FF43C
:1010C00013AF00BF0198411E002801913FF40CAFFF
:1010D00000BF0198411E002801913FF405AF00BFF9
:1010E0000198411E00280191E4D1FDE60021016034
:1010F000FFF7F6FB054600BF306880077FF5F1AECD
:10110000FFF7EEFB401B02284FF00300F4D9B4E7D1
:101110007068216A00F480328A4209D1616A00F461
:101120007010884204D1002002B0BDE8F08100BFF9
:10113000012002B0BDE8F08140F004003062306A66
:1011400040F001001EE000BF20F001003062306A74
:1011500020F004003062FFF7C3FB054641F28837F8
:10116000306A800720D5FFF7BBFB401BB8424FF029
:101170000300F5D981E700BF20F001003062306A3A
:1011800020F004003062FFF7ABFB054641F28837E0
:10119000306A800708D4FFF7A3FB401BB842F7D999
:1011A000032002B0BDE8F081B8F1000F3FF59FAE1B
:1011B000F06920F08050F06199E600BF40F4802093
:1011C0003060306840F480301CE000BF20F4803094
:1011D0003060306820F480203060FFF781FB0546E6
:1011E000306880037FF55EAEFFF77AFB401B642812
:1011F0004FF00300F4D940E720F4803030603068CD
:1012000020F480203060FFF76BFB054630688003D8
:101210003FF548AEFFF764FB401B6428F6D9032076
:1012200002B0BDE8F08100BF206AB0F5803F05D173
:101230007168A26821F40031114371607168626ABB
:1012400021F4741111430843706001203866FFF7E0
:1012500047FB0446306880013FF565AFFFF740FB70
:10126000001B02284FF00300F4D906E77047000086
:1012700010B501680A68920744BF49685FEA817146
:101280000AD440F21441C4F201014FF400320A6062
:101290000121417410BD00BF0446FFF7E7FF21683C
:1012A00020464A6822F002024A60EAE7002804BFAA
:1012B0000120704770B50446407C20B9002020749E
:1012C000204600F06BF8022060742068416821F02D
:1012D00008014160FFF704FB064600BF206845682F
:1012E000FFF7FEFA290705460ED4A81BB0F57A7F52
:1012F000F4D901200421617470BD00BFFFF7F0FA3A
:10130000401BB0F57A7FF4D8216848688006F5D58F
:10131000486846F62C4240F0100048604868C4F225
:10132000000220F007004860A06818B1536823F05D
:1013300001035360136823F46073184310606068FE
:10134000421C05D10120FFF78DFB18B3216801383D
:10135000C0F3034280B28A60C860486820F0100081
:101360004860FFF7BDFA054620684068800607D44C
:10137000FFF7B6FA401BB0F57A7FF5D9B9E700BFA1
:1013800040F201110020A4F80D100121E0736174F6
:1013900070BD00BF04210120617470BD006842F679
:1013A0000001C4F20001884218BF704780B582B0C6
:1013B000FFF752FB41F21C00C4F202000168002258
:1013C00041F0006101600068012100F000600190BF
:1013D000019840F23C40C4F24220016029200021E3
:1013E000FFF7FEFA292002B0BDE88040FFF7E6BA19
:1013F000411E0020B0EB116F1CBF012070474EF260
:101400001002CEF2000251604EF62351CEF20001DE
:10141000F0230B7007219060116070477047000047
:101420007047000090F83C20012A4FF0020236D0AD
:1014300010B580F83D200268D2F804E0D2F808C068
:101440000C682EF07003234340F2FF74C4F20004D2
:10145000A24253600ADCB2F1804F13D040F2004345
:10146000C4F200039A420DD011E000BF42F60043DF
:10147000C4F201039A4205D040F60003C4F200030F
:101480009A4204D149682CF08003194391600121EC
:10149000002280F83D1080F83C20BDE81040104646
:1014A00070470000002804BF0120704710B590F875
:1014B0003D1031B9002180F83C10044600F068F876
:1014C0002046022180F83D10016840F2FF740B684D
:1014D000C4F2000442F6004CA142C4F2010C15DC37
:1014E000B1F1804F1AD040F20042C4F200029142A2
:1014F00014D0A14218DCB1F1804F1DD040F200425F
:10150000C4F20002914217D01AE000BF614505D035
:1015100040F60002C4F200029142EAD1826823F050
:1015200070031343A142E6DD614505D040F6000299
:10153000C4F20002914203D1026923F440731343C1
:10154000846923F08002D0F804E0C3682243614537
:101550000A60CB62C1F828E002D14269CCF83020A1
:1015600001224A6180F8462080F83E2080F83F2022
:1015700080F8402080F8412080F8422080F8432005
:1015800080F8442080F8452080F83D20002010BDE0
:101590000068B0F1804F18BF704780B582B041F24B
:1015A0001C00C4F202000168002241F00101016048
:1015B0000068002100F00100019001981C20FFF755
:1015C0000FFA1C2002B0BDE88040FFF7F7B9000019
:1015D00090F83D1001291CBF01207047022180F8BE
:1015E0003D10006840F2FF72C168C4F200029042F0
:1015F00041F00101C16009DCB0F1804F12D040F22E
:101600000041C4F2000188420CD012E042F60041D1
:10161000C4F20101884205D040F60001C4F2000185
:10162000884206D1816801F00701062904BF002025
:101630007047016841F0010101600020704700001F
:1016400090F83C20012A4FF002026CD080B580F85F
:101650003D20D0F800C04FF67772DCF8083023EA5E
:101660000202CCF808200B684F2B29DC1F2B45DD2C
:10167000202B46D0302B44D0402B40F0AF80D1F807
:1016800004E0C968DCF82030DCF8202022F00102F8
:10169000CCF82020DCF8182022F0F00242EA0111F8
:1016A00023F00A0242EA0E02CCF81810CCF82020EF
:1016B000DCF8081041F0470121F0300128E000BFBC
:1016C0006F2B33DDB3F5005F74D0B3F5805F21D0AD
:1016D000702B40F08380D1E901E3C968DCF8082071
:1016E00043EA0E0322F47F4243EA01211143CCF87E
:1016F0000810DCF8081041F0770109E00BB1102B5D
:101700006CD1DCF8081021F07001194341F0070199
:10171000CCF808100022012180F83D10002180F84B
:101720003C10BDE880401046704700BF502B21D0D0
:10173000602B53D1D1F804E0C968DCF82030DCF824
:10174000202022F01002CCF82020DCF8182022F40F
:10175000704242EA013123F0A00242EA0E12CCF8B4
:101760001810CCF82020DCF8081041F0670121F0B7
:101770001001CDE7D1F804E0C968DCF82030DCF8CE
:10178000202022F00102CCF82020DCF8182022F0E2
:10179000F00242EA011123F00A0242EA0E02CCF8FA
:1017A0001810CCF82020DCF8081041F0570121F087
:1017B0002001ADE7D1E901E3C968DCF8082043EA7C
:1017C0000E0322F47F4243EA01211143CCF80810B2
:1017D000DCF8081041F480419AE700BF01229AE743
:1017E0007047000010B5016804460869800744BFCF
:1017F000C8685FEA807039D40869400744BFC86888
:101800005FEA40703ED40869000744BFC8685FEAD9
:10181000007045D40869C00644BFC8685FEAC0606C
:101820004AD40869C0071CBFC8685FEAC07051D1BC
:101830000869000644BFC8685FEA006052D40869BE
:10184000400644BFC8685FEA406053D40869800618
:1018500046BFC8685FEA806010BD6FF02002204676
:101860000A61BDE81040FFF7DBBD00BF6FF002006A
:101870000861012020778869800743D02046FFF760
:10188000AFFF45E06FF0040008610220207788690F
:1018900010F4407F40D02046FFF7A2FF42E000BF97
:1018A0006FF00800086104202077C86980073DD0E8
:1018B0002046FFF795FF3FE06FF010000861082019
:1018C0002077C86910F4407F3AD02046FFF788FFA0
:1018D0003CE000BF6FF001000861204600F03EF8D8
:1018E0002168A5E76FF0800008612046FFF796FDAC
:1018F0002168A4E76FF040000861204600F030F84E
:101900002168A3E7204600F025F8204600F024F8DF
:101910002168002020776FE7204600F01BF8204662
:1019200000F01AF82168002020776CE7204600F0CC
:1019300011F8204600F010F821680020207769E7B0
:10194000204600F007F8204600F006F82168002045
:10195000207766E77047000070470000704700007E
:10196000704700007047000070470000B0B582B0BB
:1019700001680A68CC684B6902F02F05202D04F03D
:10198000200505D125B102B0BDE8B04000F09EBDF4
:101990005FEA027C1EBF03F0010E04F4907313EBA8
:1019A0000E0341D1036BD50618D5012B16D114F0C7
:1019B000100313D0002201920A6801924A68019232
:1019C000019A496949064BD4818DC28DC38D002B84
:1019D00018BF914240F0F48102B0B0BD13062DD57E
:1019E00014F080032AD090F84120212AF4D1826893
:1019F000B2F5805F03D10269002A00F06782026AB3
:101A0000531C036212784A60C28C013A1304C284E8
:101A1000E2D1C86820F08000C860C86840F040008B
:101A2000C86002B0B0BD00BFD30718BF14F4807304
:101A300040F0D080530700F1D380D8E05206CBD5D8
:101A400014F04002C8D0CA6822F04002CA602021C7
:101A500080F8411002B0BDE8B04000F071BB00BF9B
:101A6000C16B0A68526893B2002BB5D0858DAB422A
:101A7000B2D2C2858969202900F0A180016851E8AD
:101A8000031F026821F4807142E80313DBB101688F
:101A900051E8031F026821F4807142E8031393B1F7
:101AA000016851E8031F026821F4807142E80313C2
:101AB0004BB1016851E8031F026821F4807142E8CC
:101AC0000313002BDAD1016851E8051F026821F0E9
:101AD000010142E80513C3B3016851E8051F02681C
:101AE00021F0010142E805137BB3016851E8051FAD
:101AF000026821F0010142E8051333B3016851E89F
:101B0000051F026821F0010142E80513002BDAD11C
:101B10001BE000BF016851E8051F026821F0400189
:101B200042E80513DBB1016851E8051F026821F0A6
:101B3000400142E8051393B1016851E8051F0268AE
:101B400021F0400142E805134BB1016851E8051F3F
:101B5000026821F0400142E80513002BDAD1202170
:101B600080F8421000210163016851E8031F0268F8
:101B700021F0100142E80313DBB1016851E8031FB3
:101B8000026821F0100142E8031393B1016851E8A3
:101B9000031F026821F0100142E803134BB10168F2
:101BA00051E8031F026821F0100142E80313002BE3
:101BB000DAD1C16B04460846FEF77AFB20460221C3
:101BC0004163818DC28D891A89B202B0BDE8B040EF
:101BD000FFF7C8BE436C43F001034364530706D5C7
:101BE000BEF1000F03D0436C43F00203436493073C
:101BF00006D5BEF1000F03D0436C43F004034364E9
:101C0000BCF1000F06D55EEA050303D0436C43F038
:101C100008034364436C002B3FF4DEAE920605D507
:101C200025B1044600F052FC216820464969426C07
:101C300001F0400102F00802891800F0B98000BFED
:101C4000016851E8031F026821F4907142E8031310
:101C5000BBB3016851E8031F026821F4907142E8A8
:101C6000031373B3016851E8031F026821F49071F4
:101C700042E803132BB3016851E8031F026821F403
:101C8000907142E80313002BDAD11AE0016851E8A1
:101C9000051F026821F0010142E80513DBB101686C
:101CA00051E8051F026821F0010142E8051393B1D4
:101CB000016851E8051F026821F0010142E805139F
:101CC0004BB1016851E8051F026821F0010142E8AB
:101CD0000513002BDAD1016B012924D1016851E8E9
:101CE000031F026821F0100142E80313DBB1016811
:101CF00051E8031F026821F0100142E8031393B179
:101D0000016851E8031F026821F0100142E8031343
:101D10004BB1016851E8031F026821F0100142E84D
:101D20000313002BDAD1202180F842100021016337
:101D300001684969490640F1C380016851E8051FFF
:101D4000026821F0400142E80513DBB1016851E867
:101D5000051F026821F0400142E8051393B10168B4
:101D600051E8051F026821F0400142E805134BB11C
:101D7000016851E8051F026821F0400142E805139F
:101D8000002BDAD1C16B002900F09A8042F28D223B
:101D9000C0F60002044608464A63FEF7ADFA002882
:101DA0003FF41AAEE06B416B02B0BDE8B0400847AB
:101DB0000446FFF7D9FD0020606402B0B0BD00BF4B
:101DC000891A00BF026852E8032F036822F4907258
:101DD00043E80325BDB3026852E8032F036822F4E9
:101DE000907243E8032575B3026852E8032F036835
:101DF00022F4907243E803252DB3026852E8032FC2
:101E0000036822F4907243E80325002DDAD11AE02A
:101E1000026852E8052F036822F0010243E8052515
:101E2000DDB1026852E8052F036822F0010243E8A1
:101E3000052595B1026852E8052F036822F00102DA
:101E400043E805254DB1026852E8052F036822F0EA
:101E5000010243E80525002DDAD1202280F8422036
:101E600000220263026852E8032F036822F0100286
:101E700043E80325DDB1026852E8032F036822F02E
:101E8000100243E8032595B1026852E8032F036866
:101E900022F0100243E803254DB1026852E8032FF7
:101EA000036822F0100243E80325002DDAD1022254
:101EB00089B2426302B0BDE8B040FFF753BD00BF36
:101EC00002B0BDE8B040FFF74FBD00BF026A32F874
:101ED000023B6FF35F234B60026295E5002804BF6D
:101EE0000120704710B5044690F8410028B9002041
:101EF00084F84000204600F063F8242084F8410074
:101F00002068D4E90212C36823F40053C360036954
:101F100023F440531A430261D4E904231143C268F5
:101F2000194341F20C639A431143C1604169A269AC
:101F300021F44071114343F60002C4F201029042C1
:101F4000416103D0FEF76AFF02E000BFFEF77AFFAF
:101F5000D4E90023192148439900B0FBF1F048F27D
:101F60001F5CC5F2EB1CA0FB0C314FF69C734909BA
:101F7000C0F6FF7301FB0300322303EB0010A0FB4C
:101F80000C03F02000EA531000EB0110C3F34311DF
:101F9000084490601069202120F49040106150693D
:101FA00020F02A005061D06840F40050D06000203A
:101FB000606484F8411084F84210606310BD000032
:101FC00070B586B0044644F200402168C4F20000B7
:101FD00000268142CDE904660396029602D006B03F
:101FE00070BD00BF41F21801C4F202014A6800F559
:101FF000444042F400324A604A6802F400320192DE
:10200000019A0A6842F004020A60096801F00401BA
:10201000019101990C21029102210391059102A9DC
:10202000FEF750FB40F2D8058020C2F20005C4F252
:1020300002001021802285E8430005F10C004FF4D6
:1020400080734FF4806C4FF0200E80E80C502846CF
:10205000EE61FEF77DFA002818BFFEF723F926206F
:1020600000210022A5636C62FEF7BAFC2620FEF771
:10207000A5FC06B070BD00007047000090F841302C
:10208000202B09D1944600294FF0010218BFBCF162
:10209000000F05D11046704702221046704700BF5E
:1020A00070B5002221230162A0F824C0A0F826C048
:1020B000426480F841300468836B42F2154E42F26C
:1020C000C54542F29926C0F6000EC0F60005C0F6DE
:1020D0000006C3E90AE5C3E90C62221D044618465E
:1020E0006346FEF777FA216820466FF040020A60E7
:1020F000016851E8051F026841F0800142E80513BC
:10210000DBB1016851E8051F026841F0800142E837
:10211000051393B1016851E8051F026841F0800181
:1021200042E805134BB1016851E8051F026841F010
:10213000800142E80513002BDAD1002070BD0000B9
:102140007047000070470000FEE700002DE9F043F3
:1021500085B0002641F21800CDE90366CDE901669D
:10216000C4F20200016840F6000441F01001016071
:102170000168C4F2010401F01001009100990168A6
:10218000002241F02001016001684FF0200801F0B9
:10219000200100910099016841F00401016001688B
:1021A00001F0040100910099016841F0080101600B
:1021B0000068202100F00800009000982046FEF7FB
:1021C00089FB4FF4005040F2000901AD0190C1F2CB
:1021D000110904F500602946CDE90296FEF772FA6E
:1021E0001220CDE90109204629460396FEF76AFA36
:1021F00002200127049020462946CDF80480CDE92D
:102200000276FEF75FFA04F580602946CDE9017990
:102210000396FEF757FA062000210022FEF7E0FBA6
:102220000620FEF7CBFB072000210022FEF7D8FB9B
:102230000720FEF7C3FB0A2000210022FEF7D0FB97
:102240000A20FEF7BBFB282000210022FEF7C8FB76
:102250002820FEF7B3FB05B0BDE8F083FEE70000E1
:10226000FEE700007047000040F27C00C2F2000070
:10227000FEF7FEBF70470000FEF738BB7047000056
:1022800040F21C10C2F20000FFF7ACBA406A002115
:10229000C185C184FFF768BB406A01684A6990F84C
:1022A0004130212B2DD112F080022AD00021C1848F
:1022B000016851E8031F026821F0C00142E80313DE
:1022C000DBB1016851E8031F026821F0C00142E858
:1022D000031393B1016851E8031F026821F0C001A4
:1022E00042E803134BB1016851E8031F026821F073
:1022F000C00142E80313002BDAD1202180F84110FD
:102300000168496990F84220222A40F07D8011F04E
:10231000400179D00021C185016851E8031F02689E
:1023200021F4907142E80313BBB3016851E8031F25
:10233000026821F4907142E8031373B3016851E815
:10234000031F026821F4907142E803132BB3016864
:1023500051E8031F026821F4907142E80313002B37
:10236000DAD11AE0016851E8051F026821F0010185
:1023700042E80513DBB1016851E8051F026821F04E
:10238000010142E8051393B1016851E8051F026895
:1023900021F0010142E805134BB1016851E8051F26
:1023A000026821F0010142E80513002BDAD1016B2C
:1023B000012924D1016851E8031F026821F01001AE
:1023C00042E80313DBB1016851E8031F026821F002
:1023D000100142E8031393B1016851E8031F02683A
:1023E00021F0100142E803134BB1016851E8031FCB
:1023F000026821F0100142E80313002BDAD12021FA
:1024000080F8421000210163416C41F010014164E9
:10241000FFF7AABA0168406A0968890648BFFFF752
:102420008FBE0021C18400BF016851E8051F02680A
:1024300021F0800142E8051383B3016851E8051FCC
:10244000026821F0800142E805133BB3016851E8BE
:10245000051F026821F0800142E80513F3B101680D
:1024600051E8051F026821F0800142E80513002BA6
:10247000DAD113E0016851E8031F026841F040011E
:1024800042E80313002B08BF7047016851E8031F9F
:10249000026841F0400142E8031393B1016851E83A
:1024A000031F026841F0400142E803134BB1016889
:1024B00051E8031F026841F0400142E80313002B7A
:1024C000D8D17047406AFFF73DBE000081B090F858
:1024D0004210222921D183680246B3F5805F09D1D9
:1024E00052F8281F52F8183C002B63D003685B6831
:1024F0000AE000BF52F8281F13B90369002BF5D07A
:1025000003685B6803F07F030B7011680131116091
:10251000C18D01390A04C18502D001B0704700BFE6
:102520000168CA6822F02002CA60CA6822F4807278
:10253000CA604A6922F001024A61202180F84210F3
:1025400000214163026B012A3CD10163016851E81B
:10255000031F026821F0100142E80313DBB1016898
:1025600051E8031F026821F0100142E8031393B100
:10257000016851E8031F026821F0100142E80313CB
:102580004BB1016851E8031F026821F0100142E8D5
:102590000313002BDAD101680A68D20606D500229F
:1025A00000920A680092496800910099818D01B0FB
:1025B000FFF7D8B9026852686FF35F2221F8022B47
:1025C0008162A5E701B0FFF757BD000040F290001F
:1025D000C2F20000FFF7CAB9FEE7000094B0FEF7B0
:1025E00093F9062000240A900120CDE90F44CDE99B
:1025F0000D44CDE90D0010200F904FF4601002251E
:1026000013900AA8CDE90B44CDE90244CDE9115459
:10261000FEF72CFC20B1EFF3108072B6FEE700BF8E
:102620000F20CDE904054FF48060CDE9070404A82C
:1026300002210694FEF714FB20B1EFF3108072B66E
:10264000FEE700BF012000904FF4807001906846C3
:10265000FEF784FA20B1EFF3108072B6FEE700BFF8
:1026600041F2140644F20045C4F20206C4F2000529
:10267000FFF76CFD3068002140F0010030603068E9
:10268000002200F001000A900A9811200027FEF7AE
:10269000A7F91120FEF792F940F27004C2F200048B
:1026A000204640F8205F4FF4E1310C22C0E90117C9
:1026B000C0E90377C0E90527C761FFF70FFC28B120
:1026C000EFF3108072B600BFFEE700BFA5F5E05142
:1026D000204640F80C1F4FF0FF314FF48072C0E9E4
:1026E0000112FEF7E3FD28B1EFF3108072B600BFD0
:1026F000FEE700BF40F21C100021C2F200004FF0C4
:10270000804240F2077364270D91CDE90B11CDE9AA
:102710000411C0E90023C0E9021701618161FEF7DD
:10272000C1FE28B1EFF3108072B600BFFEE700BF14
:102730004FF480500A9040F21C10C2F200000AA927
:10274000FEF77EFF20B1EFF3108072B6FEE700BF08
:1027500040F21C10C2F2000004A9FEF763FE28B18B
:10276000EFF3108072B600BFFEE700BFFFF7EEFC8C
:102770003068002140F0010030603068002200F035
:1027800001000A900A9811200026FEF729F911206D
:10279000FEF714F9204640F8205F4FF4E1310C2297
:1027A000C0E90116C0E90366C0E90526C661FFF766
:1027B00095FB28B1EFF3108072B600BFFEE700BFB3
:1027C0004BF6AA3024F8040F04F11C00214606221F
:1027D000FFF754FC40F21C10C2F20000FEF7F8FEB6
:1027E000FEE70000000000000000010203040607ED
:1027F00008090000000001020304010202030405AD
:10280000060708090A0B0C0D0E0F101030280008DF
:1028100000000020100000005001000840280008BF
:1028200010000020580700007001000800000000A0
:1028300001000000100000000024F400000000006F
:04000005080000ED02
:00000001FF
