:020000040800F2
:1000000070070020B5010008312E0008A92B000858
:100010002D2E0008BD0200089937000800000000DE
:10002000000000000000000000000000A12F0008F8
:100030002103000800000000A12E0008F92F00088D
:10004000CF010008CF010008CF010008CF01000850
:10005000CF010008CF010008250300083D03000878
:10006000CF010008CF01000849030008CF010008B4
:10007000CF010008CF010008CF010008CF01000820
:10008000CF010008C1020008CF010008CF0100081D
:10009000CF010008CF010008CF010008CF01000800
:1000A000CF010008CF010008CF010008CF010008F0
:1000B00099300008CF010008CF010008CF010008E7
:1000C000CF010008CF010008CF010008CF010008D0
:1000D000CF010008CF01000889370008CF010008D0
:1000E00031030008E12E0008CF01000800F002F8FB
:1000F00000F050F814A696E8000CB244B344DA4578
:1001000001D100F047F8BAE80F000FA696E83000DA
:10011000A5EB040504EB0607AAEB0704A7F101070A
:100120004FEA15154FEA3414A4F10104AC4201D38F
:1001300000F030F813F0010F18BFFB1A43F0010371
:1001400000F001F8DBE71847083800002838000005
:10015000103A24BF78C878C1FAD8520724BF30C8F3
:1001600030C144BF04680C60704700007047000055
:100170000023002400250026103A28BF78C1FBD8B0
:10018000520728BF30C148BF0B6070471FB51FBD65
:1001900010B510BD00F058F81146FFF7F7FF03F057
:1001A00081FB00F076F803B4FFF7F2FF03BC00F028
:1001B0007DF800000948804709480047FEE7FEE750
:1001C000FEE7FEE7FEE7FEE7FEE7FEE7FEE7FEE707
:1001D00004480549054A064B704700009530000861
:1001E000ED0000087001002070070020700300205F
:1001F000700300204FF0000200B513469446964667
:10020000203922BFA0E80C50A0E80C50B1F1200129
:10021000BFF4F7AF090728BFA0E80C5048BF0CC0D7
:100220005DF804EB890028BF40F8042B08BF704735
:1002300048BF20F8022B11F0804F18BF00F8012BA7
:100240007047704770477047754600F02BF8AE4610
:1002500005006946534620F00700854618B020B5D2
:10026000FFF7B6FFBDE820404FF000064FF0000753
:100270004FF000084FF0000BAC46ACE8C009ACE80A
:10028000C009ACE8C009ACE8C00921F007018D46FF
:10029000704710B50446AFF300802046BDE810401B
:1002A000FFF781BF00487047100000200149182067
:1002B000ABBEFEE72600020070470000FFE7FEE746
:1002C00080B540F27800C2F2000000F017F980BD5E
:1002D00084B003900291019200930398C16B026C69
:1002E000012090404860009803990968486003988D
:1002F0004068102809D1FFE70198039909688860D0
:10030000029803990968C86008E00298039909688F
:100310008860019803990968C860FFE704B07047D6
:100320007047000080B5012000F01CFB80BD00007C
:1003300080B54FF4005000F015FB80BD80B5022061
:1003400000F010FB80BD000080B5102000F00AFB1B
:1003500080BD000081B0EFF3108072B60090FFE71F
:10036000FEE7000083B0019000208DF803000198A3
:1003700090F8210002280DD0FFE70199042088633E
:10038000FFE70199002081F82000FFE701208DF8A8
:100390000B0021E001980168086820F00E00086059
:1003A00001980168086820F0010008600198C16B9D
:1003B000026C012090404860FFE70199012081F81C
:1003C0002100FFE70199002081F82000FFE79DF858
:1003D00003008DF80B00FFE79DF80B0003B070479A
:1003E00080B588B0079000208DF81B00079890F822
:1003F0002100022807D0FFE7079904208863012025
:100400008DF81B0076E007980168086820F00E0060
:10041000086007980168086820F0010008600798E4
:1004200000680821C4F20201884203D1FFE70120DD
:10043000059047E0079800681C21C4F20201884239
:1004400003D1FFE71020049039E0079800683021BD
:10045000C4F20201884204D1FFE74FF48070039098
:100460002AE0079800684421C4F20201884204D1BE
:10047000FFE74FF4805002901BE007980068582176
:10048000C4F20201884204D1FFE74FF480300190AA
:100490000CE0079801686C22C4F202024FF08070F1
:1004A000914208BF4FF480100190FFE7019802903D
:1004B000FFE702980390FFE703980490FFE7049892
:1004C0000590FFE705980421C4F20201086007992E
:1004D000012081F82100FFE70799002081F8200022
:1004E000FFE70798406B20B1FFE70798416B88470B
:1004F000FFE7FFE79DF81B0008B080BD80B58EB018
:100500000D900D98C06B00680C900D980068006805
:100510000B900C980D99096CC8404007002875D5C0
:10052000FFE79DF82C00400700286FD5FFE70D98E6
:10053000006800688006002807D4FFE70D9801686E
:10054000086820F004000860FFE70D9800680821A3
:10055000C4F20201884203D1FFE704200A9047E079
:100560000D9800681C21C4F20201884203D1FFE704
:100570004020099039E00D9800683021C4F2020152
:10058000884204D1FFE74FF4806008902AE00D987C
:1005900000684421C4F20201884204D1FFE74FF40D
:1005A000804007901BE00D9800685821C4F20201BA
:1005B000884204D1FFE74FF4802006900CE00D98AC
:1005C00001686C22C4F202024FF08060914208BFC1
:1005D0004FF480000690FFE706980790FFE7079822
:1005E0000890FFE708980990FFE709980A90FFE74D
:1005F0000A980421C4F2020108600D98C06A20B173
:10060000FFE70D98C16A8847FFE7B8E00C980D999D
:10061000096CC8408007002840F18080FFE79DF802
:100620002C008007002879D5FFE70D980068006846
:10063000800600280BD4FFE70D980168086820F0B9
:100640000A0008600D99012081F82100FFE70D984C
:1006500000680821C4F20201884203D1FFE70220AA
:10066000059047E00D9800681C21C4F20201884201
:1006700003D1FFE72020049039E00D980068302175
:10068000C4F20201884204D1FFE74FF400700390E6
:100690002AE00D9800684421C4F20201884204D186
:1006A000FFE74FF4005002901BE00D9800685821BE
:1006B000C4F20201884204D1FFE74FF400300190F8
:1006C0000CE00D9801686C22C4F202024FF0007039
:1006D000914208BF4FF400100190FFE7019802908B
:1006E000FFE702980390FFE703980490FFE7049860
:1006F0000590FFE705980421C4F202010860FFE7B6
:100700000D99002081F82000FFE70D98806A20B144
:10071000FFE70D98816A8847FFE72FE00C980D9955
:10072000096CC8400007002827D5FFE79DF82C007A
:100730000007002821D5FFE70D980168086820F020
:100740000E0008600D98C26B016C012000FA01F1E7
:1007500051600D9988630D9981F82100FFE70D998B
:10076000002081F82000FFE70D98006B20B1FFE723
:100770000D98016B8847FFE7FFE7FFE7FFE70EB043
:1007800080BD000083B0019000200090019820B946
:10079000FFE701208DF80B0047E0019908684FF64C
:1007A000F872CBF6FD7210444CF6CD42CCF6CC423A
:1007B000A0FB02026FF0030000EA920008640199B6
:1007C0000020C4F20200C8630199022081F82100D0
:1007D0000198006800680090009843F6F071884323
:1007E000009001994868D1F808C0CB680A6940EACE
:1007F0000C00184310434A6910438A691043C969C1
:100800000143009808430090009801990968086026
:10081000019900208863019A012182F82110019931
:1008200081F820008DF80B00FFE79DF80B0003B066
:100830007047000080B586B0049003910292019346
:1008400000208DF80300FFE7049890F820000128AD
:1008500004D1FFE702208DF817004CE00499012035
:1008600081F82000FFE7FFE7049890F821000128B5
:1008700032D1FFE70499022081F821000499002079
:10088000886304980168086820F0010008600498F3
:100890000399029A019BFFF71BFD0498C06A38B1C7
:1008A000FFE704980168086840F00E0008600CE05B
:1008B00004980168086820F0040008600498016842
:1008C000086840F00A000860FFE7049801680868BB
:1008D00040F00100086009E0FFE70499002081F87A
:1008E0002000FFE702208DF80300FFE79DF80300DA
:1008F0008DF81700FFE79DF8170006B080BD0000D7
:1009000080B584B0ADF80E0000F0F0F902900298C6
:1009100040F27001C2F200010968401AC9281FD3D1
:10092000FFE7BDF80E000146019101280ED0FFE758
:100930000198022804D0FFE70198102803D008E0AE
:1009400002F098FF05E002F0A1FF02E002F086FF4E
:10095000FFE7029840F27001C2F200010860FFE771
:1009600004B080BD80B582B0ADF8060040F21440FE
:10097000C4F201000068BDF8061008420CD0FFE781
:10098000BDF8060040F21441C4F201010860BDF850
:100990000600FFF7B5FFFFE702B080BD90B00F90F3
:1009A0000E9100200D900990FFE70E9800680D99B8
:1009B000C840002800F07F81FFE70D9901208840A2
:1009C0000C900E9800680C9908400B900B980C99AD
:1009D000884240F06C81FFE70E984068059000283F
:1009E00051D0FFE7059801283AD0FFE70598022883
:1009F0003FD0FFE7059803285FD0FFE7059811284F
:100A000032D0FFE70598122838D0FFE7059800217B
:100A1000C1F21101884236D0FFE705980021C1F2EA
:100A2000120188422FD0FFE705980021C1F2210171
:100A3000884228D0FFE705980021C1F222018842B0
:100A400021D0FFE705980021C1F2310188421AD078
:100A5000FFE705980021C1F23201884213D02FE050
:100A60000E98C06809902CE00E98C0680430099078
:100A700027E00E98C0680830099022E00E98C06800
:100A80000C3009901DE00E98806818B9FFE704202B
:100A9000099011E00E988068012806D1FFE7082030
:100AA00009900C980F99086105E0082009900C98AE
:100AB0000F994861FFE7FFE703E00020099000E09D
:100AC000FFE70B98FF2803D8FFE70F98049003E097
:100AD0000F9804300490FFE7049808900B98FF28C3
:100AE00004D8FFE70D988000039006E00D996FF0A1
:100AF0001F0000EB81000390FFE703980790089820
:100B00000068079A0F219140884309999140084352
:100B1000089908600E98C079C006002840F1C68088
:100B2000FFE7FFE741F21800C4F20200016841F05C
:100B300001010160006800F0010006900698FFE7DF
:100B40000D9820F003000821C4F2010140580A90DA
:100B50000D9800F0030081000F2000FA01F10A98BF
:100B600088430A900F9840F60001C4F201018842C0
:100B700003D1FFE70020029026E00F9840F60041E5
:100B8000C4F20101884203D1FFE70120019018E07F
:100B90000F9841F20001C4F20101884203D1FFE73E
:100BA000022000900AE00F9941F20042C4F20102D3
:100BB0000420914208BF03200090FFE700980190B5
:100BC000FFE701980290FFE702980D9901F00301F9
:100BD000890000FA01F10A9808430A900A980D99D1
:100BE00021F003010822C4F2010288500E98807996
:100BF000C006002809D5FFE70B9A40F20841C4F26D
:100C0000010108681043086008E00B9A40F20841AF
:100C1000C4F20101086890430860FFE70E988079EC
:100C20008006002809D5FFE70B9A40F20C41C4F278
:100C3000010108681043086008E00B9A40F20C417B
:100C4000C4F20101086890430860FFE70E988079BC
:100C50008007002809D5FFE70B9A40F20441C4F24F
:100C6000010108681043086008E00B9A40F2044153
:100C7000C4F20101086890430860FFE70E9880798C
:100C8000C00748B1FFE70B9A40F20041C4F20101EE
:100C900008681043086008E00B9A40F20041C4F273
:100CA0000101086890430860FFE7FFE7FFE70D9840
:100CB00001300D9079E610B07047000082B00190CD
:100CC000ADF802108DF801209DF8010028B1FFE772
:100CD000BDF802000199086105E0BDF802000004BA
:100CE00001990861FFE702B07047000040F2681008
:100CF000C2F200000068704740F20400C2F2000037
:100D0000027840F26811C2F20001086810440860DD
:100D10007047000080B582B042F20001C4F20201C7
:100D2000086840F010000860032000F097F80020E9
:100D3000019000F005F800F03BF8019802B080BD8A
:100D400080B582B0009040F20000C2F2000000685E
:100D500040F20401C2F200010A784FF47A71B1FB4B
:100D6000F2F1B0FBF1F001F057F820B1FFE70120FC
:100D70008DF8070018E000980F280DD8FFE70099BC
:100D80004FF0FF30002200F04FF8009840F20801C9
:100D9000C2F20001086003E001208DF8070003E0C3
:100DA00000208DF80700FFE79DF8070002B080BD26
:100DB00083B0FFE741F21800C4F20200016841F07D
:100DC00001010160006800F0010002900298FFE755
:100DD000FFE741F21C00C4F20200016841F08051BB
:100DE0000160006800F0805001900198FFE7FFE784
:100DF0000421C4F2010108680090009820F0E0602E
:100E00000090009840F08060009000980860FFE734
:100E100003B0704780B582B08DF807009DF90700D8
:100E200002F0BCFC02B080BD80B586B08DF8170022
:100E3000049103920020029002F0C8FC02909DF9F8
:100E40001700019002980499039A01F0F3FF0146FC
:100E5000019802F0C3FC06B080BD000080B582B0EE
:100E60000190019802F0DCFC02B080BD2021C4F2A8
:100E70000E2101200860704780B588B007900020DF
:100E80000690059004900390029007980190012825
:100E900066D0FFE70198022800F0A580FFE70198DF
:100EA000102840F0B080FFE741F20400C4F20200D5
:100EB0000068039041F20000C4F202000068C00123
:100EC00000284CD5FFE70398C0F3834143F62C106C
:100ED000C0F60000405C04909DF80E00C007F0B121
:100EE000FFE741F20400C4F202000068C0F3404191
:100EF00043F63C10C0F60000405C06909DF80E00E2
:100F0000C00758B1FFE7069941F20020C0F27A000D
:100F1000B0FBF1F0049948430590FFE707E004981F
:100F200040F60011C0F23D0148430590FFE741F251
:100F30000400C4F2020000684002002803D5FFE765
:100F4000059802900AE0059840004AF6AB21CAF6DF
:100F5000AA21A0FB011040080290FFE7FFE753E041
:100F600041F22000C4F2020000680390039800F4EC
:100F70004070B0F5807F0AD1FFE79DF80C00800734
:100F8000002804D5FFE74FF4004002902AE00398C0
:100F900000F44070B0F5007F0DD1FFE741F224006E
:100FA000C4F2020000688007002804D5FFE749F674
:100FB0004040029015E0039800F44070B0F5407F87
:100FC0000DD1FFE741F20000C4F202000068800387
:100FD000002804D5FFE74FF22440029000E0FFE72D
:100FE000FFE7FFE710E000F03BFA41F20401C4F232
:100FF0000201096801F44042022101EB5231B0FBC9
:10100000F1F0029000E0FFE7029808B080BD000018
:1010100080B586B004900020039002900498007878
:10102000C007002800F0AC80FFE700208DF8070023
:1010300041F21C00C4F202000068C000002813D472
:10104000FFE7FFE741F21C00C4F20200016841F033
:1010500080510160006800F0805000900098FFE728
:1010600001208DF80700FFE747F20000C4F20000FE
:101070000068C005002822D4FFE747F20001C4F24F
:101080000001086840F480700860FFF72FFE0390AD
:10109000FFE747F20000C4F200000068C005002826
:1010A0000CD4FFE7FFF722FE0399401A652804D30A
:1010B000FFE703208DF817008AE0EAE7FFE741F237
:1010C0002000C4F20200006800F440700290029810
:1010D000E0B3FFE702980499496801F4407188423F
:1010E00034D0FFE741F22001C4F20201086820F485
:1010F0004070029040F24042C4F24222012010604F
:1011000000201060029808609DF80800C007E0B158
:10111000FFE7FFF7EBFD0390FFE741F22000C4F289
:1011200002000068800700280ED4FFE7FFF7DEFD0D
:101130000399401A41F28931884204D3FFE7032022
:101140008DF8170044E0E8E7FFE7FFE741F22001F0
:10115000C4F20201086820F44070049A52681043F7
:1011600008609DF80700012809D1FFE741F21C0142
:10117000C4F20201086820F080500860FFE7FFE732
:1011800004980078800700280CD5FFE741F204019D
:10119000C4F20201086820F44040049A92681043A7
:1011A0000860FFE704980078C00600280CD5FFE728
:1011B00041F20401C4F20201086820F48000049A9C
:1011C000D26810430860FFE700208DF81700FFE7A2
:1011D0009DF8170006B080BD80B584B002900191E3
:1011E000029820B9FFE701208DF80F001BE101985C
:1011F00042F20001C4F20201096801F007018842CD
:1012000016D9FFE742F20000C4F20200016821F0A3
:101210000701019A11430160006800F0070001997D
:10122000884204D0FFE701208DF80F00FBE0FFE7C4
:1012300002980078800700282AD5FFE702980078F6
:101240004007002809D5FFE741F20401C4F202017A
:10125000086840F4E0600860FFE702980078000743
:10126000002809D5FFE741F20401C4F20201086831
:1012700040F460500860FFE741F20401C4F202014B
:10128000086820F0F000029A926810430860FFE7B7
:1012900002980078C007002860D0FFE702984068F5
:1012A00001280ED1FFE741F20000C4F202000068FD
:1012B0008003002804D4FFE701208DF80F00B2E07E
:1012C00021E00298406802280ED1FFE741F20000B9
:1012D000C4F2020000688001002804D4FFE7012066
:1012E0008DF80F009FE00DE041F20000C4F2020013
:1012F00000688007002804D4FFE701208DF80F0064
:1013000091E0FFE7FFE741F20401C4F2020108683F
:1013100020F00300029A526810430860FFF7E6FCD1
:101320000090FFE741F20400C4F20200006800F000
:101330000C0002994968B0EB810F0ED0FFE7FFF770
:10134000D5FC0099401A41F28931884204D3FFE765
:1013500003208DF80F0066E0E4E7FFE7019842F212
:101360000001C4F20201096801F00701884216D2A7
:10137000FFE742F20000C4F20200016821F0070119
:10138000019A11430160006800F00700019988424A
:1013900004D0FFE701208DF80F0044E0FFE702983A
:1013A0000078400700280CD5FFE741F20401C4F2A1
:1013B0000201086820F4E060029AD26810430860D5
:1013C000FFE702980078000700280DD5FFE741F2FB
:1013D0000401C4F20201086820F46050029A126904
:1013E00040EAC2000860FFE700F04CF841F2040157
:1013F000C4F202010968C9B20A0943F61411C0F621
:101400000001895CC84040F20001C2F2000108609E
:1014100040F20800C2F200000068FFF791FC0020D3
:101420008DF80F00FFE79DF80F0004B080BD0000AD
:1014300040F20000C2F200000068704780B5FFF77C
:10144000F7FF41F20401C4F202010968C1F302226C
:1014500043F62411C0F60001895CC84080BD00003D
:1014600080B5FFF7E5FF41F20401C4F2020109680B
:10147000C1F3C22243F62411C0F60001895CC840C2
:1014800080BD000086B0002005900490039002907B
:10149000019041F20400C4F2020000680590059832
:1014A00000F00C000146009100283FD0FFE70098B3
:1014B000042804D0FFE70098082806D037E041F25E
:1014C0000020C0F27A00019037E00598C0F3834114
:1014D00043F63E10C0F60000405C02909DF81600F6
:1014E000C007C0B1FFE741F20400C4F20200006887
:1014F000C0F3404143F64E10C0F60000405C04903B
:10150000029841F20021C0F27A0148430499B0FBED
:10151000F1F0039007E0029840F60011C0F23D019F
:1015200048430390FFE70398019006E0FFE741F28C
:101530000020C0F27A000190FFE7019806B07047E2
:1015400080B586B00490049820B9FFE701208DF89B
:1015500017002EE304980078C007002800F0AE8042
:10156000FFE741F20400C4F20200006800F00C0042
:10157000042813D0FFE741F20400C4F2020000681F
:1015800000F00C0008281BD1FFE741F20400C4F270
:1015900002000068C003002812D5FFE741F20000F6
:1015A000C4F2020000688003002808D5FFE7049811
:1015B000406820B9FFE701208DF81700F9E27CE0D0
:1015C000FFE704984068B0F5803F09D1FFE741F29A
:1015D0000001C4F20201086840F48030086032E083
:1015E0000498406868B9FFE741F20001C4F20201C3
:1015F000086820F480300860086820F480200860C3
:1016000020E004984068B0F5A02F0DD1FFE741F22B
:101610000001C4F20201086840F4802008600868F4
:1016200040F4803008600CE041F20001C4F2020195
:10163000086820F480300860086820F48020086082
:10164000FFE7FFE7FFE7FFE704984068D0B1FFE757
:10165000FFF74CFB0390FFE741F20000C4F20200E9
:101660000068800300280CD4FFE7FFF73FFB0399D5
:10167000401A652804D3FFE703208DF8170098E28D
:10168000EAE719E0FFF732FB0390FFE741F20000C1
:10169000C4F202000068800300280CD5FFE7FFF7C2
:1016A00025FB0399401A652804D3FFE703208DF832
:1016B00017007EE2EAE7FFE7FFE7FFE7049800781C
:1016C0008007002840F18D80FFE741F20400C4F25A
:1016D0000200006810F00C0F13D0FFE741F2040085
:1016E000C4F20200006800F00C00082829D1FFE7CE
:1016F00041F20400C4F202000068C003002820D4B4
:10170000FFE741F20000C4F20200006880070028F1
:1017100009D5FFE704980069012804D0FFE70120FC
:101720008DF8170045E241F20001C4F20201086899
:1017300020F0F800049A526940EAC2000860FFE70E
:101740004EE00498006958B3FFE70021C4F242213B
:1017500001200860FFF7CAFA0390FFE741F200009A
:10176000C4F202000068800700280CD4FFE7FFF7EE
:10177000BDFA0399401A032804D3FFE703208DF82C
:10178000170016E2EAE741F20001C4F2020108681C
:1017900020F0F800049A526940EAC20008601EE096
:1017A0000021C4F2422100200860FFF79FFA039055
:1017B000FFE741F20000C4F2020000688007002841
:1017C0000CD5FFE7FFF792FA0399401A032804D3D8
:1017D000FFE703208DF81700EBE1EAE7FFE7FFE7FB
:1017E000FFE7049800780007002848D5FFE7049831
:1017F000806918B3FFE740F28041C4F24221012022
:101800000860FFF773FA0390FFE741F22400C4F287
:1018100002000068800700280CD4FFE7FFF766FA93
:101820000399401A032804D3FFE703208DF817001B
:10183000BFE1EAE7012001F035FB1FE040F2804103
:10184000C4F2422100200860FFF750FA0390FFE73E
:1018500041F22400C4F202000068800700280CD581
:10186000FFE7FFF743FA0399401A032804D3FFE781
:1018700003208DF817009CE1EAE7FFE7FFE70498F3
:1018800000784007002840F1D880FFE700208DF85D
:10189000070041F21C00C4F202000068C0000028EA
:1018A00013D4FFE7FFE741F21C00C4F20200016815
:1018B00041F080510160006800F080500090009875
:1018C000FFE701208DF80700FFE747F20000C4F2B0
:1018D00000000068C005002822D4FFE747F200019D
:1018E000C4F20001086840F480700860FFF7FEF958
:1018F0000390FFE747F20000C4F200000068C00553
:1019000000280CD4FFE7FFF7F1F90399401A652886
:1019100004D3FFE703208DF817004AE1EAE7FFE769
:10192000FFE70498C068012809D1FFE741F22001D0
:10193000C4F20201086840F00100086031E0049838
:10194000C06868B9FFE741F22001C4F202010868EB
:1019500020F001000860086820F0040008601FE023
:101960000498C06805280DD1FFE741F22001C4F2B8
:101970000201086840F004000860086840F00100B7
:1019800008600CE041F22001C4F20201086820F076
:1019900001000860086820F004000860FFE7FFE726
:1019A000FFE7FFE70498C068E0B1FFE7FFF79EF9A3
:1019B0000390FFE741F22000C4F2020000688007B4
:1019C00000280ED4FFE7FFF791F90399401A41F27E
:1019D0008931884204D3FFE703208DF81700E8E03F
:1019E000E8E71BE0FFF782F90390FFE741F22000F0
:1019F000C4F202000068800700280ED5FFE7FFF759
:101A000075F90399401A41F28931884204D3FFE7FE
:101A100003208DF81700CCE0E8E7FFE79DF807000A
:101A2000012809D1FFE741F21C01C4F20201086854
:101A300020F080500860FFE7FFE70498C0690028A5
:101A400000F0B380FFE741F20400C4F20200006836
:101A500000F00C00082800F08280FFE70498C069BD
:101A600002285CD1FFE76021C4F242210020086017
:101A7000FFF73CF90390FFE741F20000C4F20200D7
:101A80000068800100280CD5FFE7FFF72FF90399C4
:101A9000401A032804D3FFE703208DF8170088E0DD
:101AA000EAE70498006AB0F5803F0CD1FFE741F205
:101AB0000401C4F20201086820F40030049A92681C
:101AC00010430860FFE741F20401C4F20201086814
:101AD00020F47410049B1A6A5B6A1A43104308606E
:101AE0006021C4F2422101200860FFF7FFF8039053
:101AF000FFE741F20000C4F2020000688001002804
:101B00000CD4FFE7FFF7F2F80399401A032804D337
:101B1000FFE703208DF817004BE0EAE71EE06021A5
:101B2000C4F2422100200860FFF7E0F80390FFE7CD
:101B300041F20000C4F202000068800100280CD5C8
:101B4000FFE7FFF7D3F80399401A032804D3FFE710
:101B500003208DF817002CE0EAE7FFE724E0049863
:101B6000C069012804D1FFE701208DF8170020E0AB
:101B700041F20400C4F2020000680290029800F4EE
:101B800080300499096A884208D1FFE7029800F47E
:101B900070100499496A884204D0FFE701208DF84B
:101BA000170006E0FFE7FFE7FFE700208DF81700CA
:101BB000FFE79DF8170006B080BD000081B00090DF
:101BC00001B0704780B582B001900198006800684C
:101BD0008007002803D5FFE7012018B917E001208E
:101BE000A8B9FFE701980068406800F002010020F2
:101BF000B0EB510F0AD0FFE70198FFF7DFFF019824
:101C00000168486820F002004860FFE7FFE740F203
:101C10001441C4F201014FF4003008600199012021
:101C2000487402B080BD000080B584B002900020EE
:101C30000190029820B9FFE701208DF80F0084E0A1
:101C40000298407C38B9FFE7029900200874029896
:101C500000F080F8FFE7029902204874029800F033
:101C6000A9F838B1FFE702990420487401208DF8E3
:101C70000F006AE0029801F03BF938B1FFE70299E2
:101C80000420487401208DF80F005EE0029801687E
:101C9000486820F0070048600298806848B1FFE774
:101CA00046F63041C4F20001086820F001000860E7
:101CB000FFE746F62C41C4F20001086820F460708A
:101CC000029A92681043086002984068013020B17F
:101CD000FFE702984068019012E00120FFF7CCF87E
:101CE0000190019838B9FFE7029904204874012057
:101CF0008DF80F0029E0019801380190FFE7FFE718
:101D0000BDF8060000F00F00029909688860BDF870
:101D1000040002990968C860029801F015F938B109
:101D2000FFE702990420487401208DF80F000CE0B1
:101D300002990020C873029A01215173029A91738B
:101D4000029A51748DF80F00FFE79DF80F0004B060
:101D500080BD000080B584B003900398006842F60F
:101D60000001C4F20001884221D1FFE7FFF77EF8AD
:101D7000FFE741F21C00C4F20200016841F000617B
:101D80000160006800F0006002900298FFE740F2F6
:101D90003C41C4F242210120086029200190002228
:101DA0001146FFF741F80198FFF734F8FFE704B058
:101DB00080BD000080B584B00290002001900298A0
:101DC00020B9FFE701208DF80F0021E0029801689B
:101DD000486820F008004860FEF788FF0190FFE7A0
:101DE000029800684068000700280DD4FFE7FEF75E
:101DF0007DFF0199401AB0F57A7F04D9FFE70320EF
:101E00008DF80F0004E0EBE700208DF80F00FFE7EE
:101E10009DF80F0004B080BD80B582B0019001989C
:101E200001F0C0F802B080BD81B0009001B07047F1
:101E300081B0009001B0704785B003900291FFE738
:101E4000039890F83C00012804D1FFE702208DF8A8
:101E500013005BE00399012081F83C00FFE7FFE7F6
:101E60000399022081F83D000398006840680190C2
:101E70000398006880680090019820F0700001903D
:101E80000298016801980843019001980399096834
:101E900048600398006842F60041C4F2010188429C
:101EA00018D0FFE703980068B0F1804F12D0FFE729
:101EB0000398006840F20041C4F20001884209D052
:101EC000FFE70398006840F60001C4F20001884271
:101ED0000ED1FFE7009820F0800000900298416842
:101EE0000098084300900098039909688860FFE70C
:101EF0000399012081F83D00FFE70399002081F854
:101F00003C00FFE700208DF81300FFE79DF8130069
:101F100005B0704780B582B00090009820B9FFE707
:101F200001208DF807003FE0009890F83D0040B98F
:101F3000FFE70099002081F83C00009800F038F895
:101F4000FFE70099022081F83D00009951F8040B49
:101F500001F0B0F80099012081F84600FFE70099F0
:101F6000012081F83E00009981F83F00009981F836
:101F70004000009981F84100FFE7FFE70099012048
:101F800081F84200009981F84300009981F84400EB
:101F9000009981F84500FFE70099012081F83D0094
:101FA00000208DF80700FFE79DF8070002B080BD14
:101FB00080B584B0039003980068B0F1804F19D1C8
:101FC000FFE7FFE741F21C00C4F20200016841F0A4
:101FD00001010160006800F0010002900298FFE733
:101FE0001C20019000221146FEF71EFF0198FEF70B
:101FF00011FFFFE704B080BD83B00190019890F815
:102000003D00012804D0FFE701208DF80B0047E0D8
:102010000199022081F83D0001980168C86840F0EC
:102020000100C8600198006842F60041C4F2010155
:10203000884218D0FFE701980068B0F1804F12D0B5
:10204000FFE70198006840F20041C4F200018842B5
:1020500009D0FFE70198006840F60001C4F20001D2
:10206000884212D1FFE701980068806800F00700FD
:1020700000900098062807D0FFE7019801680868DB
:1020800040F001000860FFE706E001980168086879
:1020900040F001000860FFE700208DF80B00FFE72B
:1020A0009DF80B0003B0704780B586B00490039193
:1020B00000208DF80B00FFE7049890F83C00012801
:1020C00004D1FFE702208DF81700ABE0049901204E
:1020D00081F83C00FFE7FFE70499022081F83D000A
:1020E0000498006880680190019820F077000190C2
:1020F000019820F47F400190019804990968886054
:10210000039800680090002872D0FFE7009810281C
:102110006ED0FFE7009820286AD0FFE700983028AB
:1021200066D0FFE70098402855D0FFE70098502878
:1021300037D0FFE70098602840D0FFE7009870286C
:102140000BD0FFE70098B0F5805F05D0FFE700985F
:10215000B0F5005F16D052E055E004980068039B8C
:102160005A689968DB6801F01DF804980068806877
:102170000190019840F07700019001980499096856
:10218000886040E004980068039B5A689968DB689F
:1021900001F008F804980168886840F4804088607D
:1021A00031E004980068039A5168D26801F02AF877
:1021B00004980068502101F00FF824E004980068AA
:1021C000039A5168D26801F045F8049800686021CC
:1021D00001F002F817E004980068039A5168D26889
:1021E00001F010F804980068402100F0F5FF0AE0C3
:1021F000049800680399096800F0EEFF03E00120ED
:102200008DF80B00FFE70499012081F83D00FFE7FE
:102210000499002081F83C00FFE79DF80B008DF841
:102220001700FFE79DF8170006B080BD81B0009051
:1022300001B0704780B582B00190019800680069D4
:1022400000F002010020B0EB510F28D0FFE7019809
:102250000068C06800F002010020B0EB510F1DD0F3
:10226000FFE7019801686FF0020008610199012001
:102270000877019800688069800720B1FFE701981E
:10228000FFF7D4FF06E0019800F012F9019800F082
:1022900013F9FFE7019900200877FFE7FFE70198AE
:1022A0000068006900F004010020B0EB910F29D014
:1022B000FFE701980068C06800F004010020B0EB5F
:1022C000910F1ED0FFE7019801686FF004000861CC
:1022D00001990220087701980068806910F4407F16
:1022E00004D0FFE70198FFF7A1FF06E0019800F096
:1022F000DFF8019800F0E0F8FFE701990020087787
:10230000FFE7FFE701980068006900F0080100207E
:10231000B0EBD10F28D0FFE701980068C06800F04B
:1023200008010020B0EBD10F1DD0FFE70198016834
:102330006FF008000861019904200877019800688F
:10234000C069800720B1FFE70198FFF76FFF06E043
:10235000019800F0ADF8019800F0AEF8FFE70199A0
:1023600000200877FFE7FFE701980068006900F0A8
:1023700010010020B0EB111F29D0FFE70198006881
:10238000C06800F010010020B0EB111F1ED0FFE765
:10239000019801686FF01000086101990820087722
:1023A00001980068C06910F4407F04D0FFE70198ED
:1023B000FFF73CFF06E0019800F07AF8019800F082
:1023C0007BF8FFE7019900200877FFE7FFE7019816
:1023D00000680069C00780B1FFE701980068C06825
:1023E000C00748B1FFE7019801686FF0010008617C
:1023F000019800F065F8FFE7FFE7019800680069C1
:10240000C1B20020B0EBD11F13D0FFE701980068E4
:10241000C068C1B20020B0EBD11F09D0FFE701981E
:1024200001686FF0800008610198FFF7FDFCFFE78D
:10243000FFE701980068006900F040010020B0EB60
:10244000911F14D0FFE701980068C06800F04001B8
:102450000020B0EB911F09D0FFE7019801686FF0F1
:1024600040000861019800F02FF8FFE7FFE70198AE
:102470000068006900F020010020B0EB511F14D06B
:10248000FFE701980068C06800F020010020B0EB71
:10249000511F09D0FFE7019801686FF02000086123
:1024A0000198FFF7C5FCFFE7FFE702B080BD000021
:1024B00081B0009001B0704781B0009001B07047CA
:1024C00081B0009001B0704781B0009001B07047BA
:1024D00082B00190ADF8021002B0704781B0009058
:1024E00001B0704780B592B01190119800680068F3
:1024F000109011980068C0680F90119800684069AA
:102500000E9000200D900C90109800F00F000D9090
:102510000D9888B9FFE79DF84000800600280AD58D
:10252000FFE79DF83C008006002804D5FFE71198DE
:1025300000F0CCFFE9E1FFE70D98002800F0C28031
:10254000FFE79DF83800C00738B9FFE7BDF83C0049
:1025500010F4907F00F0B680FFE79DF84000C007C0
:1025600058B1FFE79DF83D00C00730B1FFE7119972
:10257000486C40F001004864FFE79DF840004007C8
:1025800000280BD5FFE79DF83800C00730B1FFE702
:102590001199486C40F002004864FFE79DF8400044
:1025A000800700280BD5FFE79DF83800C00730B141
:1025B000FFE71199486C40F004004864FFE79DF87C
:1025C00040000007002811D5FFE79DF83C00800679
:1025D000002805D4FFE79DF83800C00730B1FFE7B9
:1025E0001199486C40F008004864FFE71198406C6E
:1025F000002866D0FFE79DF84000800600280AD535
:10260000FFE79DF83C008006002804D5FFE71198FD
:1026100000F05CFFFFE7119800684069C0F380108C
:102620000C901198406C0007002804D4FFE70C9828
:1026300000283ED0FFE7119800F0CEFE1198006808
:102640004069400600282FD5FFE7FFE7FFE7119814
:10265000006850E8050F20F040000B90FFE70B9951
:102660001198026842E805100028F0D1FFE7FFE763
:102670001198C06B98B1FFE71198C16B43F2A92084
:10268000C0F6000048631198C06BFDF7A9FE28B1A1
:10269000FFE71198C06B416B8847FFE703E0119893
:1026A000FFF71CFFFFE703E01198FFF717FFFFE7B5
:1026B00006E01198FFF712FF119900204864FFE728
:1026C000FFE722E11198006B012840F0FE80FFE750
:1026D0009DF84000C006002840F1F780FFE79DF814
:1026E0003C00C006002840F1F080FFE7FFE7002033
:1026F0000A901198006800680A9011980068406874
:102700000A900A98FFE7119800684069400600287F
:1027100040F18180FFE71198C06B00684068ADF818
:102720002600BDF82600002874D0FFE7BDF826007B
:102730001199898D88426DDAFFE7BDF8260011995D
:10274000C8851198C06B8069202858D0FFE7FFE743
:10275000FFE71198006850E8030F20F4807008909C
:10276000FFE708991198026842E803100028F0D1A9
:10277000FFE7FFE7FFE7FFE71198006850E8050F64
:1027800020F001000790FFE707991198026842E8DE
:1027900005100028F0D1FFE7FFE7FFE7FFE71198FA
:1027A000006850E8050F20F040000690FFE706990A
:1027B0001198026842E805100028F0D1FFE7FFE712
:1027C0001199202081F84200119900200863FFE749
:1027D000FFE71198006850E8030F20F01000059003
:1027E000FFE705991198026842E803100028F0D12C
:1027F000FFE7FFE71198C06BFDF7B4FDFFE7119904
:10280000022048631198818DC28D891A89B2FFF721
:102810005FFEFFE779E01199888DC98D401AADF808
:1028200012001198C08D00284ED0FFE7BDF81200AD
:10283000002849D0FFE7FFE7FFE71198006850E85C
:10284000030F20F490700390FFE70399119802683A
:1028500042E803100028F0D1FFE7FFE7FFE7FFE7BA
:102860001198006850E8050F20F001000290FFE782
:1028700002991198026842E805100028F0D1FFE79C
:10288000FFE71199202081F8420011990020086388
:10289000FFE7FFE71198006850E8030F20F01000F1
:1028A0000190FFE701991198026842E8031000289F
:1028B000F0D1FFE7FFE71199022048631198BDF8B6
:1028C0001210FFF705FEFFE71FE09DF8400000062D
:1028D00000280AD5FFE79DF83C000006002804D533
:1028E000FFE7119800F006FF0FE09DF8400040065A
:1028F00000280AD5FFE79DF83C004006002804D5D3
:10290000FFE7119800F0B2FDFFE712B080BD0000B4
:1029100080B582B00090009820B9FFE701208DF8C3
:10292000070040E00098806908B1FFE700E0FFE79A
:10293000009890F8410040B9FFE70099002081F825
:102940004000009800F034F8FFE70099242081F857
:10295000410000980168C86820F40050C8600098E1
:1029600000F06AFE00980168086920F49040086150
:1029700000980168486920F02A00486100980168C1
:10298000C86840F40050C860009900204864009A6C
:10299000202182F84110009A82F842100099486381
:1029A0008DF80700FFE79DF8070002B080BD00002A
:1029B00080B58CB00B9000200A9009900890079089
:1029C0000B98006844F20041C4F2000188426AD1C9
:1029D000FFE7FFE741F21C00C4F20200016841F486
:1029E00000310160006800F4003006900698FFE7AF
:1029F000FFE741F21800C4F20200016841F004014F
:102A00000160006800F0040005900598FFE70420CD
:102A100007900220089003200A9040F60000C4F2BC
:102A20000100019007A90291FDF7B8FF01980299F2
:102A3000082207920022039208920992FDF7AEFF46
:102A4000039940F27800C2F2000004908022C4F2A0
:102A5000020202601022426081608022C2604FF454
:102A6000807202614FF48062426120228261C16102
:102A7000FDF788FE18B1FFE7FDF76CFCFFE7FFE705
:102A80000B9840F27801C2F2000181630B98486212
:102A9000FFE72620009000221146FEF7C5F90098B6
:102AA000FEF7B8F9FFE70CB080BD000081B00090E0
:102AB00001B0704780B586B004900391ADF80A204C
:102AC000049890F8410020285DD1FFE7039820B1D9
:102AD000FFE7BDF80A0020B9FFE701208DF81700D5
:102AE00055E0039804990862BDF80A0004998884A7
:102AF000BDF80A000499C884049900204864049A27
:102B0000212182F8411004998A6B43F24531C0F6C5
:102B10000001916204998A6B43F2C131C0F6000151
:102B2000D16204998A6B43F2C921C0F60001116396
:102B30000499896B486303A8019004980268806B2C
:102B4000019909680432BDF80A30FDF773FE049854
:102B500001686FF040000860FFE7FFE70498006835
:102B600050E8050F40F080000090FFE700990498BE
:102B7000026842E805100028F0D1FFE7FFE70020D7
:102B80008DF8170003E002208DF81700FFE79DF88D
:102B9000170006B080BD000081B0009001B0704702
:102BA00081B0009001B07047FFE7FEE780B582B0CA
:102BB000FFE741F21400C4F20200016841F0010194
:102BC0000160006800F0010001900198FFE711200A
:102BD000009000221146FEF727F90098FEF71AF937
:102BE00002B080BD80B592B00020119010900F907F
:102BF0000E90FFE741F21800C4F20200016841F0B4
:102C000010010160006800F010000D900D98FFE7C2
:102C1000FFE741F21800C4F20200016841F0200110
:102C20000160006800F020000C900C98FFE7FFE7BF
:102C300041F21800C4F20200016841F00401016091
:102C4000006800F004000B900B98FFE7FFE741F2EB
:102C50001800C4F20200016841F008010160006838
:102C600000F008000A900A98FFE740F60000C4F25E
:102C7000010001902021009100220892FEF71EF829
:102C800008984FF400510E910021C1F211010391F7
:102C90000F91109041F20000C4F201000EA90491BE
:102CA000FDF77CFE0198039B0499089A4FF0120CE3
:102CB000CDF838C00F931092FDF770FE009B01987D
:102CC0000499089A0E93012302930F931092022203
:102CD0001192FDF763FE029B039A049908980E93E4
:102CE0000F92109040F60040C4F20100FDF756FE2E
:102CF000089A062005901146FEF796F80598FEF70B
:102D000089F8089A072006901146FEF78DF8069874
:102D1000FEF780F8089A0A2007901146FEF784F81B
:102D20000798FEF777F8089A282009901146FEF7D1
:102D30007BF80998FEF76EF812B080BD80B540F2BE
:102D4000BC00C2F2000042F60001C4F200010160C2
:102D50004FF0FF3141604FF480718160FEF764FFF6
:102D600018B1FFE7FDF7F6FAFFE780BD80B588B040
:102D7000002101910791069105910491039102911F
:102D800040F2D000C2F200004FF08042026040F2F8
:102D90000772426081606422C26001618161FFF755
:102DA000B9F818B1FFE7FDF7D5FAFFE74FF4805007
:102DB000049040F2D000C2F2000004A9FFF774F9B9
:102DC00018B1FFE7FDF7C6FAFFE700200290039075
:102DD00040F2D000C2F2000002A9FFF72DF818B1AE
:102DE000FFE7FDF7B7FAFFE708B080BD80B582B016
:102DF00040F21810C2F20000019044F20041C4F207
:102E0000000101604FF4E131416000218160C16047
:102E100001610C2242618161C161FFF779FD18B146
:102E2000FFE7FDF797FAFFE702B080BDFFE7FEE797
:102E3000FFE7FEE788B0079006910592079800F03B
:102E4000070004900498C0F10700052803D3FFE7AA
:102E50000420019004E00498C0F107000190FFE70E
:102E60000198039004980430062803D8FFE7002057
:102E7000009003E0049803380090FFE70098029068
:102E800006980399012202FA01F101390840029BD8
:102E9000984005999A40013A1140084308B070479C
:102EA0007047000082B00190019840F20001C2F228
:102EB00000010968C90844F6D352C1F26202A1FBBD
:102EC0000221890948430090FFE700BFFFE700980F
:102ED000411E00910028F8D1FFE702B070470000C2
:102EE00080B540F2BC00C2F20000FEF76BFE80BD70
:102EF00080B584B0029000200190FDF7F7FE0190AC
:102F0000FFE7029800684068800600280DD4FFE7BC
:102F1000FDF7ECFE0199401AB0F57A7F04D9FFE77E
:102F200003208DF80F000AE0EBE70298016848687B
:102F300040F01000486000208DF80F00FFE79DF87A
:102F40000F0004B080BD000080B584B00290002066
:102F5000019002980168486820F010004860FDF771
:102F6000C5FE0190FFE702980068406880060028CF
:102F70000DD4FFE7FDF7BAFE0199401AB0F57A7F4C
:102F800004D9FFE703208DF80F0004E0EBE70020F1
:102F90008DF80F00FFE79DF80F0004B080BD000022
:102FA0007047000080B582B0009000980138B0F101
:102FB000807F03D3FFE70120019019E000980138DA
:102FC0004EF21401CEF2000108604FF0FF300F21E5
:102FD00000F004FC4EF21801CEF20001002008605F
:102FE0004EF21002CEF20002072111600190FFE7BD
:102FF000019802B080BD000080B5FDF77DFE80BD68
:1030000080B596B00CA801902821FDF7F3F801983F
:10301000002202920B920A9209920892079206925B
:1030200005920492039205210C914FF480310D9189
:103030000E9201220F9210920222139214914FF4D9
:10304000E0111591FEF77CFA18B1FFE7FDF782F960
:10305000FFE70F20079002210891002009904FF40C
:1030600080620A920B9007A8FEF7B6F818B1FFE746
:10307000FDF770F9FFE7012003904FF48070049092
:1030800003A8FDF7C5FF18B1FFE7FDF763F9FFE7F8
:1030900016B080BD7047000080B540F27401C2F2E6
:1030A00000010120086040F2D000C2F20000FFF7EA
:1030B000C1F880BD83B00290019102980068009031
:1030C000029842F60041C4F20101884215D0FFE7A0
:1030D0000298B0F1804F10D0FFE7029840F2004113
:1030E000C4F20001884208D0FFE7029840F60001D0
:1030F000C4F2000188420AD1FFE7009820F0700076
:10310000009001984168009808430090FFE70298FA
:1031100042F60041C4F20101884215D0FFE702984F
:10312000B0F1804F10D0FFE7029840F20041C4F2A6
:103130000001884208D0FFE7029840F60001C4F27F
:10314000000188420AD1FFE7009820F44070009007
:103150000198C168009808430090FFE7009820F0AC
:10316000800001994969084300900098029908601D
:10317000019880680299C862019800680299886283
:10318000029842F60041C4F20101884205D1FFE7EE
:103190000198006902990863FFE7029901204861DC
:1031A00003B0704785B00490039102920193049894
:1031B00080680090009820F47F4000900398029966
:1031C000019A41EA022101430098084300900098C7
:1031D0000499886005B0704783B00290019102980D
:1031E00080680090009820F070000090019800998D
:1031F000084340F00700009000980299886003B0EF
:103200007047000085B00490039102920498006A10
:1032100000900499086A20F001000862049880690F
:103220000190019820F0F00001900299019840EA85
:1032300001100190009820F00A0000900399009876
:1032400008430090019804998861009804990862E5
:1032500005B0704785B00490039102920498006A0B
:1032600000900499086A20F01000086204988069B0
:103270000190019820F4704001900299019840EA71
:1032800001300190009820F0A00000900399009870
:1032900040EA01100090019804998861009804990F
:1032A000086205B07047000080B582B001900198B7
:1032B000406A009000990020C8850099C884009851
:1032C000FFF70CF902B080BD80B584B003900020F8
:1032D00002900398406A0190019800684069C0B26A
:1032E000C0090290019890F8410021280AD1FFE717
:1032F000029838B1FFE701990020C884019800F0D6
:10330000C9F8FFE7019800684069C0F38010029097
:10331000019890F8420022280AD1FFE7029838B1BC
:10332000FFE701990020C885019800F055F8FFE7F4
:103330000199486C40F0100048640198FFF7CEF8FE
:1033400004B080BD80B584B003900398406A0290B9
:10335000039800680068800600282AD4FFE70299D5
:103360000020C884FFE7FFE70298006850E8050FD7
:1033700020F080000190FFE701990298026842E87E
:1033800005100028F0D1FFE7FFE7FFE7FFE702980D
:10339000006850E8030F40F040000090FFE70099FC
:1033A0000298026842E803100028F0D1FFE7FFE727
:1033B00003E00298FFF7F0FBFFE704B080BD0000D8
:1033C00080B582B001900198406A00900098FFF7A4
:1033D000E7FB02B080BD000084B00390FFE7FFE789
:1033E0000398006850E8030F20F490700290FFE704
:1033F00002990398026842E803100028F0D1FFE721
:10340000FFE7FFE7FFE70398006850E8050F20F0AB
:1034100001000190FFE701990398026842E8051056
:103420000028F0D1FFE7FFE70398006B012814D1D3
:10343000FFE7FFE7FFE70398006850E8030F20F07D
:1034400010000090FFE700990398026842E803101B
:103450000028F0D1FFE7FFE7FFE70399202081F87C
:10346000420003990020086304B0704780B582B021
:10347000019001980168C86820F04000C860019977
:10348000202081F841000198FFF786FB002002B060
:1034900080BD000082B00190FFE7FFE7019800685F
:1034A00050E8030F20F0C0000090FFE7009901985A
:1034B000026842E803100028F0D1FFE7FFE7019916
:1034C000202081F8410002B07047000080B586B02E
:1034D0000490049890F84200222840F0A480FFE76E
:1034E00004988068B0F5805F15D1FFE70498006903
:1034F00088B9FFE7002003900498806A029004983E
:10350000006840686FF35F20029908800499886A18
:103510000230886225E00498806A039000200290BF
:1035200004988068B0F5805F08D0FFE70498806851
:1035300050B9FFE70498006930B9FFE704980068C4
:1035400040680399087007E004980068406800F03C
:103550007F0003990870FFE70499886A0130886248
:10356000FFE70499C88D0138C8850004002856D1AA
:10357000FFE704980168C86820F02000C86004983C
:103580000168C86820F48070C860049801684869C0
:1035900020F0010048610499202081F8420004993C
:1035A000002048630498006B012830D1FFE704999C
:1035B00000200863FFE7FFE70498006850E8030F66
:1035C00020F010000190FFE701990498026842E89A
:1035D00003100028F0D1FFE7FFE7049800680068B7
:1035E000C00600280ED5FFE7FFE7002000900498F2
:1035F0000068006800900498006840680090009897
:10360000FFE7FFE70498818DFEF762FF03E004986F
:10361000FFF74CFAFFE700208DF8170007E00020C5
:103620008DF8170003E002208DF81700FFE79DF8E2
:10363000170006B080BD000080B584B003900398E9
:103640000068006920F44050039A1168D268104362
:103650000861039988680A69496910430843029020
:1036600003980068C06841F20C61884302990843DE
:1036700003990968C86003980068406920F44070A5
:10368000039A11689269104348610398006843F6F1
:103690000001C4F20101884204D1FFE7FDF7E0FE1A
:1036A000019003E0FDF7CAFE0190FFE701981921A0
:1036B0004843039A116852689200B0FBF2FC48F24A
:1036C0001F52C5F2EB12ACFB02304309642003FB2E
:1036D00010CC322000EB0C10A0FB0202F02000EA1C
:1036E000521000EB0310C2F343121044886004B080
:1036F00080BD000083B00190019890F8410021281E
:103700003AD1FFE701988068B0F5805F13D1FFE7F9
:103710000198006978B9FFE70198006A0090009865
:1037200000886FF35F200199096848600199086A71
:103730000230086208E0019A106A411C11620078A8
:10374000019909684860FFE70199C88C0138C8846D
:10375000000468B9FFE701980168C86820F080009C
:10376000C86001980168C86840F04000C860FFE781
:1037700000208DF80B0003E002208DF80B00FFE71E
:103780009DF80B0003B0704780B540F21810C2F2EC
:103790000000FEF7A7FE80BDFFE7FEE781B08DF8D1
:1037A00003009DF9030000280ED4FFE79DF90310E4
:1037B00001F01F02012090404A094EF20011CEF2A2
:1037C000000141F82200FFE701B070474EF60C50AF
:1037D000CEF200000068C0F30220704782B08DF87E
:1037E000070000919DF9070000280AD4FFE7009820
:1037F00000019DF907104EF20042CEF200028854FB
:103800000BE0009800019DF8071001F00F014EF643
:103810001452CEF200028854FFE702B07047000055
:1038200083B00290029800F0070000904EF60C5111
:10383000CEF200010868019001984FF6FF02104097
:1038400001900198009A40EA02200022C0F2FA5248
:10385000104301900198086003B0704781B00520C3
:10386000009040F26011C2F200010098C1F802001D
:1038700001B0704781B00220009040F26011C2F2A6
:1038800000010098C1F8020001B0704781B0042027
:10389000009040F26011C2F200010098C1F80200ED
:1038A00001B0704780B582B000200190FDF732FA78
:1038B000FFF7A6FBFFF796F9FFF778F9FFF796FAFF
:1038C000FFF73CFAFFF752FA40F26011C2F2000132
:1038D000AA200870BB20487040F21810C2F2000005
:1038E0000622FFF7E7F840F2D000C2F20000FEF730
:1038F00083FBFFE740F27400C2F200000068012879
:1039000007D1FFE740F27401C2F200010020086015
:10391000FFE7EFE7000000000000000001020304E1
:103920000607080900000000010203040203040561
:10393000060708090A0B0C0D0E0F101001020203F6
:103940000405060708090A0B0C0D0E0F10100102E2
:10395000703900080000002010000000500100082D
:103960008039000810000020600700007001000886
:103970000024F4000100000010000000000000001E
:04000005080000ED02
:00000001FF
